:020000040800F2
:1000000000800020893E0008491000084B100008BD
:100010004D1000084F1000085110000800000000AB
:10002000000000000000000000000000013B00088C
:100030005310000800000000A13B0008053C000828
:10004000D93E0008D93E0008D93E0008D93E000834
:10005000D93E0008D93E0008D93E0008D93E000824
:10006000D93E0008D93E0008D93E0008D93E000814
:10007000D93E000855100008D93E0008D93E0008B6
:10008000D93E0008D93E0008D93E0008D93E0008F4
:100090006510000875100008D93E0008D93E000818
:1000A000D93E0008D93E0008D93E0008D93E0008D4
:1000B000D93E0008D93E0008D93E0008D93E0008C4
:1000C000D93E0008D93E0008D93E0008D93E0008B4
:1000D000D93E0008D93E0008D93E0008D93E0008A4
:1000E000D93E0008D93E0008D93E0008D93E000894
:1000F000D93E0008D93E00080000000000000000C2
:100100000000000000000000D93E0008D93E0008B1
:100110000000000000000000D93E0008D93E0008A1
:10012000D93E0008D93E000885100008D93E0008D5
:1001300095100008D93E0008D93E0008D93E0008B5
:10014000D93E000800000000000000000000000090
:10015000000000000000000000000000000000009F
:100160000000000000000000D93E0008D93E000851
:10017000D93E000800000000A510000800000000A3
:0801800000000000D93E000858
:1001900010B5054C237833B9044B13B10448AFF3C1
:1001A00000800123237010BD10000020000000001B
:1001B000343F000808B5034B1BB103490348AFF3B4
:1001C000008008BD0000000014000020343F00083B
:1001D00081F0004102E000BF83F0004330B54FEAF8
:1001E00041044FEA430594EA050F08BF90EA020F65
:1001F0001FBF54EA000C55EA020C7FEA645C7FEAF8
:10020000655C00F0E2804FEA5454D4EB5555B8BF1A
:100210006D420CDD2C4480EA020281EA030382EA8B
:10022000000083EA010180EA020281EA0303362D1D
:1002300088BF30BD11F0004F4FEA01314FF4801CF0
:100240004CEA113102D0404261EB410113F0004F02
:100250004FEA03334CEA133302D0524263EB4303B9
:1002600094EA050F00F0A780A4F10104D5F1200E57
:100270000DDB02FA0EFC22FA05F2801841F10001B2
:1002800003FA0EF2801843FA05F359410EE0A5F186
:1002900020050EF1200E012A03FA0EFC28BF4CF0B7
:1002A000020C43FA05F3C01851EBE37101F000456D
:1002B00007D54FF0000EDCF1000C7EEB00006EEB7A
:1002C0000101B1F5801F1BD3B1F5001F0CD3490804
:1002D0005FEA30004FEA3C0C04F101044FEA44525B
:1002E00012F5800F80F09A80BCF1004F08BF5FEAE2
:1002F000500C50F1000041EB045141EA050130BDC2
:100300005FEA4C0C404141EB010111F4801FA4F164
:100310000104E9D191F0000F04BF01460020B1FAB9
:1003200081F308BF2033A3F10B03B3F120020CDAF1
:100330000C3208DD02F1140CC2F10C0201FA0CF0CF
:1003400021FA02F10CE002F11402D8BFC2F1200C34
:1003500001FA02F120FA0CFCDCBF41EA0C019040EA
:10036000E41AA2BF01EB0451294330BD6FEA040433
:100370001F3C1CDA0C340EDC04F11404C4F120021E
:1003800020FA04F001FA02F340EA030021FA04F330
:1003900045EA030130BDC4F10C04C4F1200220FA87
:1003A00002F001FA04F340EA0300294630BD21FAC5
:1003B00004F0294630BD94F0000F83F4801306BF8B
:1003C00081F480110134013D4EE77FEA645C18BF7F
:1003D0007FEA655C29D094EA050F08BF90EA020F16
:1003E00005D054EA000C04BF1946104630BD91EA0E
:1003F000030F1EBF0021002030BD5FEA545C05D111
:100400004000494128BF41F0004130BD14F580044F
:100410003CBF01F5801130BD01F0004545F0FE41C3
:1004200041F470014FF0000030BD7FEA645C1ABFF8
:10043000194610467FEA655C1CBF0B46024650EA2F
:10044000013406BF52EA033591EA030F41F400215B
:1004500030BD00BF90F0000F04BF0021704730B5E1
:100460004FF4806404F132044FF000054FF00001B6
:1004700050E700BF90F0000F04BF0021704730B577
:100480004FF4806404F1320410F0004548BF40424C
:100490004FF000013EE700BF42004FEAE2014FEAA1
:1004A00031014FEA02701FBF12F07F4393F07F4F7C
:1004B00081F06051704732F07F4208BF704793F07F
:1004C0007F4F04BF41F40021704730B54FF4607492
:1004D00001F0004521F000411CE700BF50EA010295
:1004E00008BF704730B54FF000050AE050EA01023E
:1004F00008BF704730B511F0004502D5404261EBAE
:1005000041014FF4806404F132045FEA915C3FF4EE
:10051000D8AE4FF003025FEADC0C18BF03325FEA8B
:10052000DC0C18BF033202EBDC02C2F1200300FA3C
:1005300003FC20FA02F001FA03FE40EA0E0021FA61
:1005400002F11444BDE600BF70B54FF0FF0C4CF44F
:10055000E06C1CEA11541DBF1CEA135594EA0C0F01
:1005600095EA0C0F00F0DEF82C4481EA030621EA3C
:100570004C5123EA4C5350EA013518BF52EA033577
:1005800041F4801143F4801338D0A0FB02CE4FF029
:100590000005E1FB02E506F00042E0FB03E54FF059
:1005A0000006E1FB03569CF0000F18BF4EF0010E51
:1005B000A4F1FF04B6F5007F64F5407404D25FEA4D
:1005C0004E0E6D4146EB060642EAC62141EA555100
:1005D0004FEAC52040EA5E504FEACE2EB4F1FD0C42
:1005E00088BFBCF5E06F1ED8BEF1004F08BF5FEAC0
:1005F000500E50F1000041EB045170BD06F0004672
:1006000046EA010140EA020081EA0301B4EB5C041E
:10061000C2BFD4EB0C0541EA045170BD41F4801116
:100620004FF0000E013C00F3AB8014F1360FDEBF3B
:10063000002001F0004170BDC4F10004203C35DA17
:100640000C341BDC04F11404C4F1200500FA05F39A
:1006500020FA04F001FA05F240EA020001F000423B
:1006600021F0004110EBD37021FA04F642EB0601B1
:100670005EEA430E08BF20EAD37070BDC4F10C04DB
:10068000C4F1200500FA04F320FA05F001FA04F29F
:1006900040EA020001F0004110EBD37041F100018B
:1006A0005EEA430E08BF20EAD37070BDC4F1200596
:1006B00000FA05F24EEA020E20FA04F301FA05F2FE
:1006C00043EA020321FA04F001F0004121FA04F2A6
:1006D00020EA020000EBD3705EEA430E08BF20EA76
:1006E000D37070BD94F0000F0FD101F000464000B0
:1006F00041EB010111F4801F08BF013CF7D041EA32
:10070000060195F0000F18BF704703F00046520035
:1007100043EB030313F4801F08BF013DF7D043EA06
:100720000603704794EA0C0F0CEA135518BF95EABC
:100730000C0F0CD050EA410618BF52EA4306D1D143
:1007400081EA030101F000414FF0000070BD50EA62
:10075000410606BF1046194652EA430619D094EAEC
:100760000C0F02D150EA013613D195EA0C0F05D1D6
:1007700052EA03361CBF104619460AD181EA03012A
:1007800001F0004141F0FE4141F470014FF00000E2
:1007900070BD41F0FE4141F4780170BD70B54FF07D
:1007A000FF0C4CF4E06C1CEA11541DBF1CEA1355FD
:1007B00094EA0C0F95EA0C0F00F0A7F8A4EB0504DF
:1007C00081EA030E52EA03354FEA013100F08880D6
:1007D0004FEA03334FF0805545EA131343EA12639F
:1007E0004FEA022245EA111545EA10654FEA002654
:1007F0000EF000419D4208BF964244F1FD0404F50D
:10080000407402D25B084FEA3202B61A65EB030568
:100810005B084FEA32024FF480104FF4002CB6EB25
:10082000020E75EB030E22BFB61A754640EA0C00A5
:100830005B084FEA3202B6EB020E75EB030E22BFE5
:10084000B61A754640EA5C005B084FEA3202B6EB26
:10085000020E75EB030E22BFB61A754640EA9C00E5
:100860005B084FEA3202B6EB020E75EB030E22BFB5
:10087000B61A754640EADC0055EA060E18D04FEA73
:10088000051545EA16754FEA06164FEAC30343EA13
:1008900052734FEAC2025FEA1C1CC0D111F4801FE0
:1008A0000BD141EA00014FF000004FF0004CB6E7D9
:1008B00011F4801F04BF01430020B4F1FD0C88BF78
:1008C000BCF5E06F3FF6AFAEB5EB030C04BFB6EB83
:1008D000020C5FEA500C50F1000041EB045170BD76
:1008E0000EF0004E4EEA113114EB5C04C2BFD4EBA3
:1008F0000C0541EA045170BD41F480114FF0000E27
:10090000013C90E645EA060E8DE60CEA135594EAA2
:100910000C0F08BF95EA0C0F3FF43BAF94EA0C0FA5
:100920000AD150EA01347FF434AF95EA0C0F7FF41A
:1009300025AF104619462CE795EA0C0F06D152EA6E
:1009400003353FF4FDAE1046194622E750EA410652
:1009500018BF52EA43067FF4C5AE50EA41047FF463
:100960000DAF52EA43057FF4EBAE12E74FEA4102C6
:10097000B2F1E04324BFB3F5001CDCF1FE5C0DD9FD
:1009800001F0004C4FEAC0024CEA5070B2F1004F47
:1009900040EB830008BF20F00100704711F0804F4A
:1009A00021D113F13872BCBF01F00040704741F40F
:1009B00080114FEA5252C2F11802C2F1200C10FA13
:1009C0000CF320FA02F018BF40F001004FEAC123F7
:1009D0004FEAD32303FA0CFC40EA0C0023FA02F39B
:1009E0004FEA4303CCE77FEA625307D150EA013371
:1009F0001EBF4FF0FE4040F44000704701F0004041
:100A000040F0FE4040F40000704700BF30B59BB09E
:100A1000002412941394159416940B940C940D9432
:100A20000E940F942C222146684603F07BFA012293
:100A300010924FF480331193149202251795189356
:100A40004FF4E013199310A801F0B2F90F230B93A0
:100A50000C950D944FF480630E930F9429460BA8C8
:100A600001F0EAFC4FF4023300930A944FF028435C
:100A70000893684601F0EAFD4FF4007002F00CF9AB
:100A80004FF4006002F008F91BB030BD08B501F06A
:100A900057F9FFF7BBFF00F023F800F081F900F0F1
:100AA000F9F900F0AFF900F005F900F09BF802F059
:100AB000D9F903F049F902F039F902F0BFF902F06F
:100AC0008DFEFEE708B50268034B9A4200D008BDD0
:100AD00001F048F9FBE700BF005C014070470000EF
:100AE00030B58DB000240794089409940A940B94AF
:100AF000374B5A6942F400225A615A6902F40022C3
:100B00000192019A5A6942F480025A615A6902F4C8
:100B100080020292029A5A6942F400325A615A697A
:100B200002F400320392039A5A6942F480225A6115
:100B30005A6902F480220492049A5A6942F400121B
:100B40005A615A6902F400120592059A5A6942F4F0
:100B500080125A615B6903F480130693069B1D4D56
:100B600022464FF40051284601F042FF4FF4005353
:100B700007930123089309940A9407A9284601F0D2
:100B80006DFE48F26F13079303250895099407A992
:100B90004FF0904001F062FEFC2307930895099402
:100BA00007A90D4801F05AFE4FF4407307930895CA
:100BB000099407A9094801F051FEC023079308953D
:100BC000099407A9064801F049FE0DB030BD00BFE9
:100BD00000100240000800480004004800100048CF
:100BE0000014004808B50E480E4B03600323436011
:100BF00000238360C3604FF4002202614FF480122F
:100C000042610376012242768276C3760377427789
:100C100000F070FA00B908BDFFF760FFFBE700BF06
:100C2000800D00200064004000B589B000230393CC
:100C3000049305930693079302681C4B9A4202D0D3
:100C400009B05DF804FB03F5D633DA6942F00072AF
:100C5000DA61DA6902F000720192019A5A6942F48B
:100C600080225A615B6903F480230293029B4FF454
:100C700040730393022304930323069309230793EA
:100C800003A90B4801F0EAFD00220521142001F020
:100C9000C3FF142001F0F4FF00220521152001F00C
:100CA000BBFF152001F0ECFFCAE700BF0064004065
:100CB0000004004800B585B000230193029303931C
:100CC0000B480C4B036000F097FC50B900220192D6
:100CD000029201A9064800F0E7FC28B905B05DF8CA
:100CE00004FBFFF7FBFEF1E7FFF7F8FEF6E700BFB6
:100CF000A80D00200074004030B589B00023039394
:100D000004930593069307930268214B9A4201D0FE
:100D100009B030BD044603F5CE33DA6942F0005223
:100D2000DA61DA6902F000520192019A5A6942F4DA
:100D300000325A615B6903F400330293029B102571
:100D400003950323049303A94FF0904001F086FD1F
:100D50001048114B0360456000238360C3604FF46B
:100D6000807202614FF48062426120228261C3611D
:100D700001F084FE40B9094A136843F4005313603C
:100D8000044BA3605C62C3E7FFF7A8FEF3E700BF74
:100D900000740040BC0D0020300002400000014003
:100DA00000B583B0164B5A6942F002025A615A6983
:100DB00002F002020092009A5A6942F001025A615E
:100DC0005B6903F001030193019B002205210D20C3
:100DD00001F022FF0D2001F053FF002205213A20EF
:100DE00001F01AFF3A2001F04BFF002205213C20C0
:100DF00001F012FF3C2001F043FF03B05DF804FB5B
:100E00000010024000B585B00023009301930293C7
:100E100003931D481D4A026043604FF08072826058
:100E2000C3604FF40073036100F0A6FCE8B9002131
:100E3000154800F06FFDD8B9002100910191029191
:100E400003916A46104800F0E9FCA0B9002210495D
:100E50000D4800F007FD88B901220D490A4800F04D
:100E600033FD70B905B05DF804FBFFF737FEDEE730
:100E7000FFF734FEE0E7FFF731FEE7E7FFF72EFE6E
:100E8000EAE7FFF72BFEEDE7880E00200060014047
:100E90004000060000B585B0002300930193029343
:100EA00003931D481D4A026043604FF080728260C8
:100EB000C3604FF40073036100F05EFCE8B90021E9
:100EC000154800F027FDD8B9002100910191029149
:100ED00003916A46104800F0A1FCA0B90022104915
:100EE0000D4800F0BFFC88B901220D490A4800F006
:100EF000EBFC70B905B05DF804FBFFF7EFFDDEE732
:100F0000FFF7ECFDE0E7FFF7E9FDE7E7FFF7E6FDB8
:100F1000EAE7FFF7E3FDEDE7CC0E002000680140B3
:100F20000001080010B58AB004460023059306931B
:100F300007930893099303683B4A934204D03B4AC2
:100F4000934237D00AB010BD394B9A6942F0807293
:100F50009A619A6902F080720192019A5A6942F488
:100F600080225A615B6903F480230293029B03236E
:100F70000593069305A92F4801F070FC2E482F4BCE
:100F800003600023436083608022C2604FF480725C
:100F900002614FF48062426183614FF48053C36108
:100FA00001F06CFD18B9244B63615C62CAE7FFF77E
:100FB00095FDF8E71E4B9A6942F080629A619A6942
:100FC00002F080620392039A5A6942F480225A61C5
:100FD0005B6903F480230493049B4FF4404305931F
:100FE0000323069305A9134801F038FC1448154B58
:100FF00003600023436083608023C3604FF4007369
:1010000003614FF400634361202383614FF48053F5
:10101000C36101F033FD18B9094B63615C6291E76C
:10102000FFF75CFDF8E700BF006001400068014089
:101030000010024000040048000E0020300402406E
:10104000440E0020580402407047FEE7FEE7FEE72A
:10105000FEE7704708B5024801F072FD08BD00BF09
:10106000BC0D002008B5024800F09AF908BD00BF89
:10107000800D002008B5024800F092F908BD00BFBD
:10108000800D002008B5024801F05AFD08BD00BFE0
:10109000000E002008B5024801F052FD08BD00BF57
:1010A000440E002008B5024800F00EFD08BD00BF48
:1010B0004410002000B583B00D4B9A6942F0010244
:1010C0009A619A6902F001020092009ADA6942F08C
:1010D0008052DA61DB6903F080530193019B0022A7
:1010E0000F216FF0010001F097FD03B05DF804FBE4
:1010F00000100240002800F0A18038B5044690F8A6
:101100002030D3B12268136823F00203136000F08B
:1011100035FE054623685A6812F0020F10D000F021
:101120002DFE401B0A28F5D9636A43F4003363623D
:10113000052384F82030012038BDFFF775FDE1E775
:101140001A6842F001021A6000F018FE0546236892
:101150005A6812F0010F0DD100F010FE401B0A2852
:10116000F5D9636A43F400336362052384F82030C1
:101170000120E1E7227E012A3DD01A6822F0800298
:101180001A60637E012B3BD02268136823F0400372
:101190001360A37E012B39D02268136823F020034B
:1011A0001360E37E012B37D02268136843F01003ED
:1011B0001360237F012B35D02268136823F00803C6
:1011C0001360637F012B33D02268136823F004037C
:1011D0001360A368E26813432269134362691343EF
:1011E0006268013A21681343CB61002060620123E9
:1011F00084F82030A0E71A6842F080021A60C0E745
:101200002268136843F040031360C2E72268136842
:1012100043F020031360C4E72268136823F010032F
:101220001360C6E72268136843F008031360C8E739
:101230002268136843F004031360CAE70120704773
:1012400038B590F82030DBB2012B05D0436A43F467
:1012500000234362012038BD0446022380F8203079
:101260000268136823F00103136000F087FD054650
:1012700023685B6813F0010F0DD000F07FFD401B69
:101280000A28F5D9636A43F400336362052384F8BE
:1012900020300120DFE700206062DCE770B490F8C6
:1012A00020400568AD68013CE4B2012C06D9436AD0
:1012B00043F480234362012070BC704715F0E05F67
:1012C0005BD0C5F30165022D3ED80124AC401C6003
:1012D0008B68002B3ED10E68CB68046843EA465603
:1012E00005F118031B01E65003680C6905F11806A7
:1012F00003EB06135C600B7D012B36D0D17993791B
:101300001B0443EA0163517943EA0123147901681C
:1013100023432C012144C1F88C31D17893781B04EC
:1013200043EA0163517843EA0123117802680B43D1
:101330002244C2F88831026818352D01535943F010
:10134000010353510020B7E7436A43F400034362AB
:101350000120B1E74C6843EAC403CC680668234324
:1013600005F1180424013351BEE7036803EB0613AB
:10137000596841F480715960C0E7436A43F400132F
:101380004362012098E77047704770477047704785
:101390007047704770477047704770477047704795
:1013A0002DE9F84F054603685C695F689E68D3F8CD
:1013B0000C90D3F81080D3F818A014F0010F5AD075
:1013C00016F0010F17D001229A6016F0020F08D113
:1013D00016F0040F30D116F0080F07D04FF4805BE1
:1013E0000BE0FFF7D0FF4FF0000B06E0FFF7CEFF5A
:1013F0004FF0000B01E04FF0000B16F4807F0BD094
:101400002B684FF480729A6016F4007F17D116F49F
:10141000806F18D04BF4005B16F4803F2DD02B6802
:101420004FF480329A6016F4003F16D116F4802FE4
:1014300017D04BF4004B20E04FF4006BDDE728465B
:10144000FFF7A2FFE8E716F4006F02D04BF4804BE1
:10145000E2E72846FFF79BFFDEE72846FFF795FF08
:101460000BE016F4002F02D04BF4803B05E0284639
:10147000FFF78EFF01E04FF0000B14F0080F07D0CC
:1014800019F0100F04D04BF4007B2B681022DA60A7
:1014900014F0040F02D019F0080F60D114F0020FFD
:1014A00004D02B68DB6813F0030F5FD114F0400FFA
:1014B00007D018F0100F04D04BF4806B2B6810226B
:1014C0001A6114F0200F02D018F0080F52D114F056
:1014D000100F04D02B681B6913F0030F51D114F4C3
:1014E000003F02D017F0100F4FD114F4803F02D00C
:1014F00017F0080F50D114F4004F67D017F0040F05
:1015000061D014F4807F04D01AF0010F01D04BF0A9
:10151000010B14F4007F04D01AF0020F01D04BF03D
:10152000020B14F4806F04D01AF0040F01D04BF0BA
:10153000040B14F4006F46D01AF0700A43D0BAF1CD
:10154000300F48D02FD9BAF1500F47D0BAF1600F01
:1015500047D0BAF1400F31D14BF0400B2EE02B6851
:101560000822DA602846FFF715FF97E72846FFF7BD
:1015700010FF9BE72B6808221A612846FFF70CFF33
:10158000A5E72846FFF707FFA9E72B6810225A6056
:101590002846FFF702FFA8E72B6808225A60284672
:1015A000FFF7FCFEA7E7BAF1100F05D0BAF1200F44
:1015B00004D14BF0100B01E04BF0080B2A68936943
:1015C00023F0700393612B6804225A60BBF1000F73
:1015D0000AD1BDE8F88F4BF0200BEFE74BF0800B02
:1015E000ECE74BF4807BE9E76B6A43EA0B036B6241
:1015F0002846FFF7D4FEECE770B110B50446037936
:1016000033B102232371002020610123237110BD17
:101610004371FFF771FBF4E70120704710B483B00A
:10162000002401940068019051B101990A441432D8
:101630000192019A1360002003B05DF8044B7047DB
:1016400001990A4408320192F3E74379012B29D02A
:1016500010B40123437102220271046822688B4096
:101660001343236091B90268136803F03C033C2BD9
:1016700007D0012303710023437118465DF8044B22
:101680007047536843F001035360F2E70268136840
:1016900003F47013B3F5701FEBD1536843F00203EA
:1016A0005360E6E7022070474379012B1FD070B4E6
:1016B00001254571022303710668336840F6FE7404
:1016C000944023EA04040B6849680B439340234386
:1016D000336004682368C02101FA02F223EA02029F
:1016E0002260057100234371184670BC70470220C8
:1016F00070470268136823F000431360704738B5E1
:1017000004460268136843F00043136000F036FBA0
:10171000054623689B68002B06DB00F02FFB401B6F
:10172000C828F6D9032000E0002038BD10B50446D3
:10173000836A6BB90268536843F40003536094F8FA
:101740003C30012B15D0052384F83C30002010BD1F
:10175000FFF7D5FF40B92268136843F400431360D4
:101760002046FFF7C6FFEAE7FF2384F83C3003205A
:10177000EDE70323E8E7000000284AD010B504464F
:1017800000238361C3610122026242628362C362F9
:101790004FF400520263436383630364FFF7C2FBA9
:1017A0002268136823F4E053136021680B686268B1
:1017B000E068024313430B602268536823F0807390
:1017C000536022685368A1680B435360124B1B6837
:1017D00003F44073226993420ED12268536843F0A8
:1017E0000103536023689B6813F4004FFAD101236F
:1017F00084F83C30002010BD074B1A6822F4407278
:101800001A601A6821690A431A60022000F0BCFAC3
:10181000E3E70120704700BF00600140F8B590F891
:101820003C30012B02D001252846F8BD17460E4654
:101830000446FFF764FF054670B9216801EB860195
:101840003B687A681343BA681343FA6813430B6220
:101850002046FFF74EFFE7E7FF2384F83C300325DF
:10186000E2E70000F8B590F83C30012B02D00127E8
:101870003846F8BD16460C460546FFF740FF0746BA
:10188000B8B9104B9C4219D0210C2868036C890010
:1018900001F01F0103228A4023EA020303642A683D
:1018A000136C06FA01F1194311642846FFF721FF72
:1018B000DEE7FF2385F83C300327D9E72B685E6419
:1018C000F3E700BF0001080090F83C30013BDBB2B9
:1018D000FD2B1AD830B40468636823F49E03636058
:1018E000012A09D004686368090C0904194361607E
:1018F0008261002030BC704705686B68044C0C4066
:10190000234343F480036B60F2E70120704700BF7C
:101910000000BFFF02680A4B9A4209D090F83C20B1
:10192000531EDBB2012B07D9042A05D001207047D2
:101930000129F3D10120704781620020704700BF68
:101940000060014070B590F83C30012B02D00125B9
:10195000284670BD0E460446FFF7D1FE0546A0B9E5
:101960002268536823F006035360236859683143A3
:1019700059602046FFF7BDFE2268536843F010030C
:101980005360022384F83C30E2E7FF2384F83C30C4
:101990000325DDE790F83C30022B01D00120704791
:1019A00070B50D46044600F0E9F9064623689A68CA
:1019B00012F0010F0BD1B5F1FF3FF7D000F0DEF9C7
:1019C000801BA8420CD8002DF0D1032007E0DA6874
:1019D00042F00102DA60012384F83C30002070BD3F
:1019E0000320FCE710B50468246814F4803F3DD15F
:1019F000836A43B9846934B94469A4691CB9012A6A
:101A000001D0012033E02BB983691BB943699B697D
:101A1000202B2DD090F83C30012B03D0042B01D08B
:101A2000012024E04369134C9C624369124C1C63FF
:101A300043699C69202C12D013460A46044600686C
:101A4000016841F40031016021686431606901F08E
:101A50003DF838B1FF2384F83C30012007E0074C03
:101A6000DC62E9E72046FFF761FE00E0012010BDDF
:101A70000120FCE78D1A0008991A0008831A000853
:101A8000704708B5406AFFF7FBFF08BD08B5406A1C
:101A900001F072F908BD704708B5406A032303647A
:101AA000FFF7F9FF08BD70470268D36843F00103F0
:101AB000D3600268136843F001031360002070478D
:101AC000704770477047704710B5044603681A693D
:101AD00012F0020F11D0DA6812F0020F0DD06FF081
:101AE00002021A610123037703689B6913F0030F55
:101AF00070D0FFF7E6FF0023237723681A6912F0FE
:101B0000040F12D0DA6812F0040F0ED06FF0040246
:101B10001A610223237723689B6913F4407F5FD007
:101B20002046FFF7CEFF0023237723681A6912F0BF
:101B3000080F12D0DA6812F0080F0ED06FF008020A
:101B40001A61042323772368DB6913F0030F4ED057
:101B50002046FFF7B6FF0023237723681A6912F0A7
:101B6000100F12D0DA6812F0100F0ED06FF01002C2
:101B70001A61082323772368DB6913F4407F3DD083
:101B80002046FFF79EFF0023237723681A6912F08F
:101B9000010F03D0DA6812F0010F36D123681A69F9
:101BA00012F0800F03D0DA6812F0800F34D123686E
:101BB0001A6912F0400F03D0DA6812F0400F32D1E8
:101BC00023681A6912F0200F03D0DA6812F0200F90
:101BD00030D110BDFFF774FF2046FFF773FF8AE78F
:101BE0002046FFF76DFF2046FFF76CFF9BE720467E
:101BF000FFF766FF2046FFF765FFACE72046FFF7DB
:101C00005FFF2046FFF75EFFBDE76FF001021A613C
:101C10002046FEF757FFC1E76FF080021A612046A9
:101C200000F08CF8C3E76FF040021A612046FFF71E
:101C30004AFFC5E76FF020021A61204600F07DF8E8
:101C4000C7E700000368B0F1804F0ED02C4A9042E5
:101C50000BD002F58062904207D002F5806290427C
:101C600003D002F5A832904203D123F070034A68F2
:101C70001343B0F1804F26D0214A904223D002F581
:101C8000806290421FD002F5806290421BD002F524
:101C90004062904217D002F58062904213D002F564
:101CA000806290420FD002F5903290420BD002F544
:101CB0008062904207D002F58062904203D002F524
:101CC000A052904203D123F44073CA68134323F017
:101CD00080034A69134303608B68C3620B688362A5
:101CE000084B984207D003F58063984203D003F570
:101CF0008063984201D10B690363012343617047FC
:101D00000004004000400140A8B110B5044690F81E
:101D10003D305BB1022384F83D30211D2068FFF780
:101D200091FF012384F83D30002010BD80F83C3045
:101D3000FFF7B9FEEEE701207047704770470000DB
:101D400008B5074A136843F010031360032000F03E
:101D500051FF002001F0F6F8FFF7ACF9002008BDB4
:101D600000200240034A1168034B1B780B441360A8
:101D7000704700BF100F002000000020014B1868C2
:101D8000704700BF100F002038B50446FFF7F6FF7C
:101D90000546B4F1FF3F02D0044B1B781C44FFF70B
:101DA000EDFF401BA042FAD338BD00BF0000002069
:101DB000002800F0F58270B582B00446036813F085
:101DC000010F3BD0B54B5B6803F00C03042B1ED016
:101DD000B24B5B6803F00C03082B13D06368B3F5B8
:101DE000803F68D0002B40F0928003F1804303F5E0
:101DF00004331A6822F480321A601A6822F48022AE
:101E00001A605DE0A54B5B6813F4803FE6D04FF4A9
:101E1000003393FAA3F3A14B19684FF4003393FAFC
:101E2000A3F3B3FA83F303F01F03012202FA03F3CF
:101E30000B4203D06368002B00F0B482236813F0D8
:101E4000020F00F0C680954B5B6813F00C0F00F09A
:101E50009C80924B5B6803F00C03082B00F08F8092
:101E60002369002B00F0F380012292FAA2F3B3FA67
:101E700083F303F1845303F584139B001A60FFF787
:101E80007DFF0546022393FAA3F3844B19680223CE
:101E900093FAA3F3B3FA83F303F01F03012202FAC8
:101EA00003F30B4240F0C480FFF768FF401B022899
:101EB000E8D9032083E2794A136843F4803313603E
:101EC000764AD36A23F00F03A1680B43D362636899
:101ED000002B36D0FFF752FF05464FF4003393FA3C
:101EE000A3F36E4B19684FF4003393FAA3F3B3FADC
:101EF00083F303F01F03012202FA03F30B429DD187
:101F0000FFF73CFF401B6428E7D9032057E2B3F5F5
:101F1000A02F09D0614B1A6822F480321A601A6827
:101F200022F480221A60CBE703F18043A3F53C330F
:101F30001A6842F480221A601A6842F480321A60E9
:101F4000BEE7FFF71BFF05464FF4003393FAA3F3F8
:101F5000524B19684FF4003393FAA3F3B3FA83F3A7
:101F600003F01F03012202FA03F30B423FF466AFB2
:101F7000FFF704FF401B6428E6D903201FE2474B0C
:101F80005B6813F4803F7FF46BAF022393FAA3F3F3
:101F9000424B1968022393FAA3F3B3FA83F303F0D5
:101FA0001F03012202FA03F30B4204D02369934278
:101FB00001D0012003E23948036823F0F803616986
:101FC000F82292FAA2F2B2FA82F201FA02F2134372
:101FD0000360236813F0080F00F08C80A369002BC6
:101FE00060D0012191FAA1F2B2FA82F22C4B134493
:101FF0009B001960FFF7C2FE0546022393FAA3F285
:1020000093FAA3F293FAA3F2244A516A93FAA3F340
:10201000B3FA83F303F01F03012202FA03F30B4226
:1020200068D1FFF7ABFE401B0228E6D90320C6E1CA
:102030001A48036823F0F8036169F82292FAA2F2C1
:10204000B2FA82F201FA02F213430360C1E70123FC
:1020500093FAA3F3B3FA83F303F1845303F58413E0
:102060009B0000221A60FFF789FE0546022393FABF
:10207000A3F30A4B1968022393FAA3F3B3FA83F389
:1020800003F01F03012202FA03F30B42A1D0FFF772
:1020900075FE401B0228E9D9032090E100100240A0
:1020A00020819010012292FAA2F2B2FA82F2C04B81
:1020B00013449B0000221A60FFF760FE05460223CE
:1020C00093FAA3F293FAA3F293FAA3F2B94A516AEC
:1020D00093FAA3F3B3FA83F303F01F03012202FA86
:1020E00003F30B4206D0FFF749FE401B0228E6D956
:1020F000032064E1236813F0040F00F0B380AD4BBC
:10210000DB6913F0805F20D1AA4BDA6942F080527C
:10211000DA61DB6903F080530193019B0125A64B33
:102120001B6813F4807F12D0E368012B23D073BBAC
:1021300003F1804303F504331A6A22F001021A62A4
:102140001A6A22F004021A621AE00025E7E79A4AA6
:10215000136843F480731360FFF710FE0646964B36
:102160001B6813F4807FDFD1FFF708FE801B642813
:10217000F5D9032023E18F4A136A43F00103136268
:10218000E368002B41D0FFF7F9FD06462BE0052B55
:1021900009D0884B1A6A22F001021A621A6A22F0E8
:1021A00004021A62ECE7834B1A6A42F004021A62D4
:1021B0001A6A42F001021A62E2E77E4B196A0223B0
:1021C00093FAA3F3B3FA83F303F01F03012202FA95
:1021D00003F3194245D1FFF7D1FD801B41F288334B
:1021E000984200F2E180022393FAA3F293FAA3F358
:1021F000B3FA83F35B0943F00203022BDDD0022321
:1022000093FAA3F36B4B596AD9E7FFF7B7FD06467C
:1022100015E0684B196A022393FAA3F3B3FA83F328
:1022200003F01F03012202FA03F3194219D0FFF74A
:10223000A5FD801B41F28833984200F2B78002234B
:1022400093FAA3F293FAA3F3B3FA83F35B0943F08F
:102250000203022BDDD0022393FAA3F3554B596AF4
:10226000D9E7B5BBE369002B00F0A880514A52685A
:1022700002F00C02082A00F0A480022B2FD04FF0AD
:10228000807393FAA3F3B3FA83F303F1845303F552
:1022900084139B0000221A60FFF770FD04464FF084
:1022A000007393FAA3F3434B19684FF0007393FA4A
:1022B000A3F3B3FA83F303F01F03012202FA03F33B
:1022C00019426BD0FFF75AFD001B0228E7D9032003
:1022D00075E0384AD36923F08053D361C2E74FF0E9
:1022E000807393FAA3F3B3FA83F303F1845303F5F2
:1022F00084139B0000221A60FFF740FD05464FF053
:10230000007393FAA3F32B4B19684FF0007393FA01
:10231000A3F3B3FA83F303F01F03012202FA03F3DA
:10232000194206D0FFF72AFD401B0228E7D90320F7
:1023300045E020494B6823F47413626A206A024323
:1023400013434B604FF0807393FAA3F3B3FA83F314
:1023500003F1845303F584139B0001221A60FFF7F5
:102360000DFD04464FF0007393FAA3F3114B196867
:102370004FF0007393FAA3F3B3FA83F303F01F0350
:10238000012202FA03F3194206D1FFF7F7FC001B02
:102390000228E7D9032012E0002010E000200EE020
:1023A0000120704701200AE0032008E0032006E036
:1023B000208190100010024000700040002002B008
:1023C00070BD0120FBE700BF164B596801F00C03FC
:1023D000082B24D101F470124FF4701393FAA3F375
:1023E000B3FA83F322FA03F30F4AD05C0D4BDB6A96
:1023F00003F00F030F2292FAA2F2B2FA82F2D34054
:102400000A4AD25C11F4803F03D1094B03FB00F070
:102410007047084BB3FBF2F300FB03F0704705482D
:10242000704700BF00100240603F0008703F000886
:1024300000093D0000127A00002800F0C08070B54D
:102440000446614B1B6803F007038B420CD25E4AC3
:10245000136823F007030B431360136803F00703AB
:102460008B4201D0012070BD236813F0020F06D00B
:10247000564A536823F0F003A068034353600D46A7
:10248000236813F0010F5AD06368012B2DD0022B63
:1024900040D0022292FAA2F24C4A1068022292FA2A
:1024A000A2F2B2FA82F202F01F02012101FA02F254
:1024B000104200F0868045494A6822F00302134327
:1024C0004B60FFF75BFC0646404B5B6803F00C0378
:1024D0006268B3EB820F32D0FFF750FC801B41F2F1
:1024E00088339842F0D90320BDE74FF4003292FAC6
:1024F000A2F2364A10684FF4003292FAA2F2B2FA0F
:1025000082F202F01F02012101FA02F20242D2D14C
:102510000120A8E74FF0007292FAA2F22B4A10684D
:102520004FF0007292FAA2F2B2FA82F202F01F02A7
:10253000012101FA02F21042BDD1012093E7224BA2
:102540001B6803F00703AB420CD91F4A136823F042
:1025500007032B431360136803F00703AB4201D05A
:10256000012080E7236813F0040F06D0174A536850
:1025700023F4E063E1680B435360236813F0080F12
:1025800007D0124A536823F46053216943EAC10318
:102590005360FFF719FF0D4B5B6803F0F003F02267
:1025A00092FAA2F2B2FA82F2D340094AD35CD8403E
:1025B000084B1860002000F0C5FC002053E7012004
:1025C000704701204FE700BF00200240001002408A
:1025D000803F000804000020014B1868704700BFCE
:1025E0000400002008B5FFF7F7FF074B5B6803F412
:1025F00060534FF4605292FAA2F2B2FA82F2D340E0
:10260000024AD35CD84008BD00100240903F000849
:102610000F2303600B4B5A6802F0030242605A68B2
:1026200002F0F00282605A6802F4E062C2605B6805
:10263000DB0803F4E0630361034B1B6803F007034B
:102640000B6070470010024000200240F0B583B0DC
:102650000446036813F4803F48D07D4BDB6913F0D8
:10266000805F40F0A9807A4BDA6942F08052DA61EB
:10267000DB6903F080530193019B0125754B1B68B7
:1026800013F4807F00F09A80714B1B6A13F440733F
:1026900022D0626802F440729A421DD06C48016AEE
:1026A00021F440764FF4803393FAA3F2B2FA82F227
:1026B000694F3A4492004FF0010CC2F800C093FAFF
:1026C000A3F3B3FA83F33B449B0000221A60066233
:1026D00011F0010F40F087805D4A136A23F44073C4
:1026E00061680B431362002D40F0A980236813F04A
:1026F000010F06D0564A136B23F00303A1680B4366
:102700001363236813F0020F06D0514A136B23F4AE
:102710004033E1680B431363236813F0040F06D0C2
:102720004B4A136B23F4402321690B431363236843
:1027300013F0200F06D0464A136B23F01003616993
:102740000B431363236813F4003F06D0404A5368D9
:1027500023F48003A16A0B435360236813F0400FF6
:1027600006D03B4A136B23F02003A1690B4313638C
:10277000236813F0800F06D0354A536823F4404392
:10278000E1690B435360236813F4006F06D0304AAD
:10279000536823F07843216A0B435360236813F492
:1027A000806F53D02A4A136B23F04003616A0B43B6
:1027B0001363002003B0F0BD00255FE7254A1368CE
:1027C00043F480731360FFF7D9FA0646214B1B6868
:1027D00013F4807F7FF458AFFFF7D0FA801B642892
:1027E000F4D90320E6E7FFF7C9FA064615E0184BCF
:1027F000196A022393FAA3F3B3FA83F303F01F03D6
:10280000012202FA03F30B427FF466AFFFF7B6FA38
:10281000801B41F28833984216D8022393FAA3F220
:1028200093FAA3F3B3FA83F35B0943F00203022B99
:10283000DDD0022393FAA3F3054B596AD9E7D36994
:1028400023F08053D36151E70320B3E70020B1E7C1
:10285000001002400070004000819010F0B482B07F
:10286000002336E0042400E00024B4403C43023559
:102870005B4E46F825405B4C2568D44304EA0506C8
:102880004F6817F4803F01D042EA0506554D2E608F
:102890006D6804EA05064F6817F4003F01D042EA6C
:1028A0000506504D6E60AD6804EA05064F6817F4E2
:1028B000801F01D042EA05064A4DAE60ED682C400B
:1028C0004E6816F4001F01D042EA0504454AD46060
:1028D00001330A6832FA03F47ED001249C4022407E
:1028E000F6D04D68022D01D0122D10D1DE08083629
:1028F00050F826C003F00705AF000F25BD402CEAB5
:10290000050C0D69BD4045EA0C0540F826500668E7
:102910005F000325BD40ED4305EA060C4E6806F056
:102920000306BE4046EA0C0606604E6806F1FF3C10
:10293000BCF1010F03D9112E01D0122E10D18668DF
:1029400005EA060CCE68BE4046EA0C06866046687C
:1029500026EA04044E68C6F300169E4026434660ED
:10296000C46825408C68BC402C43C4604C6814F09B
:10297000805FADD01C4CA56945F00105A561A46937
:1029800004F001040194019C9D08AE1C144C54F801
:10299000267003F00304A6000F24B44027EA0407BE
:1029A000B0F1904F3FF460AF104CA0420ED004F550
:1029B0008064A0420CD004F58064A0420AD004F5E3
:1029C0008064A0423FF44EAF05244EE701244CE75B
:1029D00002244AE7032448E702B0F0BC704700BF76
:1029E00000000140000401400010024000040048C3
:1029F0000AB98162704781617047436959404161FA
:102A0000704770B4066CC56B0124B4406C600468F8
:102A100063604368102B05D0036899600368DA602F
:102A200070BC704703689A600368D960F8E70000DB
:102A300002680C4B9A420AD90B4B13440B4AA2FB77
:102A400003231B099B000364094BC3637047094BB5
:102A50001344064AA2FB03231B099B000364064B95
:102A6000C363704707040240F8FBFDBFCDCCCCCC5C
:102A700000040240F8FFFDBF0000024020B310B583
:102A80000446022380F8213001680A6822F47F524C
:102A900022F03002436880680343E0680343206902
:102AA000034360690343A0690343E069034313439D
:102AB0000B602046FFF7BCFF0020A063012384F8D1
:102AC000213084F8200010BD0120704738B590F8FF
:102AD0002040012C32D0012480F8204090F8214081
:102AE000012C04D0002380F82030022038BD044699
:102AF000022084F821000020A0632568286820F0C7
:102B0000010028602046FFF77CFFE36A5BB1226882
:102B1000136843F00E0313602268136843F0010347
:102B200013600020E2E72268136843F00A03136091
:102B30002268136823F004031360EDE70220D5E751
:102B400038B5C36B1A6804682568016C04238B4090
:102B5000134213D015F0040F10D0236813F0200F88
:102B600003D1236823F004032360016CC26B0423A8
:102B70008B405360C36A03B1984738BD02238B4032
:102B800013421AD015F0020F17D0236813F0200F4C
:102B900006D1236823F00A032360012380F8213043
:102BA000016CC26B02238B405360002380F82030FD
:102BB000836A002BE1D09847DFE7082303FA01F18D
:102BC0001142DAD015F0080FD7D0236823F00E0396
:102BD0002360026CC16B012303FA02F24A60836333
:102BE00080F82130002380F82030036B002BC4D004
:102BF0009847C2E7074AD36823F4E0631B041B0C21
:102C0000000200F4E060184340F0BF6040F4003080
:102C1000D060704700ED00E030B4174BDB68C3F3C1
:102C20000223C3F10704042C28BF04241D1D062D14
:102C300018D9033B4FF0FF3505FA04F421EA0401EB
:102C4000994005FA03F322EA0303194300280BDB3A
:102C50000901C9B200F1604000F5614080F800133D
:102C600030BC70470023E5E700F00F000901C9B24E
:102C7000024B1954F4E700BF00ED00E014ED00E052
:102C800000F01F02400901239340024A42F820301D
:102C9000704700BF00E100E082B0084BDA6942F003
:102CA0008052DA61DB6903F080530193019B044A8F
:102CB00013681843106002B0704700BF0010024054
:102CC000007000401549D1F8883043F47003C1F812
:102CD0008830134B1A6842F001021A605868114A92
:102CE00002405A601A6822F0847222F480321A601C
:102CF0001A6822F480221A605A6822F4FE025A608E
:102D0000DA6A22F00F02DA62186B074A02401A638D
:102D100000229A604FF000638B60704700ED00E086
:102D2000001002400CC07FF8CCFC00FF08B50E4C30
:102D300000212046FEF789FC0C4B1B88002211461F
:102D40002046FEF76BFC0A4C00212046FEF7FAFDF8
:102D50004FF0FF312046FEF71DFE32220549204686
:102D6000FEF740FEFEE700BFA80D0020080000208F
:102D7000CC0E0020140F002008B5174B834200D062
:102D800008BD0023154A136008E0154A32F92300F4
:102D900012490A6802440A600133DBB2312BF4D9CC
:102DA0000E4B18684042FDF765FB00220D4BFDF706
:102DB000F5FC00220C4BFDF711FA05A3D3E9002323
:102DC000FDF7ECFCFDF7D2FD084B1860D8E700BF1B
:102DD00000000000005BAE40CC0E00203000002060
:102DE000140F002000004940000039402C00002052
:102DF00000B589B00E48FEF723FA40F20133029382
:102E0000002304930593042206928DF81C300DEBE9
:102E10000203084A02A90648FEF740FA4FF400519F
:102E20000548FFF7EAFD052000F0F7FCE5E700BFE5
:102E3000800D00202C0000200008004830B587B02D
:102E400001AC064D0FCD0FC42B682360002101A8F3
:102E500000F0C9FC024B186007B030BD4C3F0008C1
:102E6000DC0F002008B51048104B03604FF482734C
:102E70004360002383604FF4E062C26003614361FA
:102E80004FF4007282613022C26103624362836246
:102E90000722C26203630823436300F08FF800B97E
:102EA00008BDFDF71BFEFBE7E00F002000380040E7
:102EB00070B588B00023039304930593069307939A
:102EC00002681E4B9A4201D008B070BD03F5EC3386
:102ED000DA6942F48042DA61DA6902F480420092EF
:102EE000009A5A6942F480125A615A6902F48012B7
:102EF0000192019A5A6942F400325A615B6903F403
:102F000000330293029B4FF48073039302260496CE
:102F1000032506950524079403A90948FFF79EFC9D
:102F20004FF4C0630393049600230593069507941A
:102F300003A94FF09040FFF791FCC5E7003800402F
:102F4000000C004800B589B0002201464E20FFF772
:102F500063FE4E20FFF794FE144B9A6942F4002260
:102F60009A619B6903F400230193019B02A903A8C2
:102F7000FFF74EFBFFF736FB0D4BA3FB00239B0C2B
:102F8000013B0C480C4A026040F2E732C2604360E9
:102F9000002303618360FEF7B7FE18B1012009B07A
:102FA0005DF804FB0348FEF77FFDF8E700100240E0
:102FB00083DE1B4344100020005C0140002858D0F1
:102FC00010B504460023836290F85D30002B45D095
:102FD000022384F85D302268136823F040031360F5
:102FE000E368B3F5E06F3ED90022B3F5706F04D00B
:102FF000B3F5E06F01D00021A162216B21B9B3F5D7
:10300000E06F33D9022323636368A1680B4321690E
:103010000B4361690B43A16901F400710B43E16942
:103020000B43216A0B43A06A216803430B60638B47
:1030300003F00403616A0B43616B0B43E1680B43CC
:10304000216813434B602268D36923F40063D36182
:1030500000202066012384F85D3010BD80F85C30CC
:10306000FFF726FFB4E74FF48052BEE70123236346
:10307000CAE70120704700F1080343604FF0FF32B8
:103080008260C36003610023036070470023036113
:10309000704743684B609A688A609A68516099608B
:1030A0000861036801330360704730B40D68B5F1FF
:1030B000FF3F02D000F1080202E0026904E01A4674
:1030C00053681C68AC42FAD953684B6099608A60B7
:1030D0005160086103680133036030BC70470369C5
:1030E0004268816891608268416851605A68824292
:1030F00005D00022026118680138186070478268A4
:103100005A60F6E7084B1B681B683BB1064B1B680F
:10311000DB68DB685A68054B1A607047034B4FF059
:10312000FF321A60704700BF3800002010010020F5
:1031300010B50446006B00F05BFC204600F058FC24
:1031400010BD2DE9F04780469946089D099F0A9CCD
:10315000266B02F18042013A06EB820626F0070652
:1031600000230F2B07D8C85CE21882F83400CA5C31
:103170000AB10133F5E7002384F84330062D00D966
:103180000625E56265644FF0000AC4F848A0201DDA
:10319000FFF77CFF04F11800FFF778FF2461C5F109
:1031A0000705A5616462C4F84CA084F850A04A46A3
:1031B0004146304600F088FC206007B13C60BDE825
:1031C000F087000038B5002407E004EB8402930088
:1031D0000E481844FFF74FFF0134062CF5D90C4D6B
:1031E0002846FFF748FF0B4C2046FFF744FF0A48EC
:1031F000FFF741FF0948FFF73EFF0948FFF73BFF94
:10320000084B1D60084B1C6038BD00BF400000200B
:10321000E4000020F80000201801002044010020F4
:1032200030010020380000203C00002010B504468A
:1032300000F078FC204A1368013313601F4B1B68B1
:103240005BB11F4B1B686BB91C4B1B68DA6AE36AE6
:103250009A4207D8194B1C6004E0184B1C60136895
:10326000012B26D0174A136801331360E36A012249
:103270009A401549086802430A6003EB83039A00E9
:10328000211D12481044FFF704FF00F06DFC0C4BA9
:103290001B686BB1094B1B68DA6AE36A9A4207D272
:1032A0000B4B4FF080521A60BFF34F8FBFF36F8FFD
:1032B00010BDFFF787FFD5E7CC00002034000020C9
:1032C0002C010020DC000020E00000204000002055
:1032D00004ED00E070B504460E461D4B1D681D4B05
:1032E00018680430FFF7FBFE50B91A4B1B68DA6A06
:1032F000012303FA02F218490B6823EA02030B6068
:10330000B4F1FF3F13D02C44124B1B685C60A54204
:1033100016D8124B18680F4B19680431FFF7C5FE19
:103320000F4B1B68A34212D90D4B1C600FE0002EFF
:10333000E9D0084B196804310A48FFF7AAFE06E0F5
:10334000094B1868034B19680431FFF7AEFE70BDD6
:103350005801002034000020E00000203800002048
:1033600010010020300100203C0000202DE9F04336
:1033700085B00746884615469946900000F0B4FA95
:10338000F8B10646542000F0AFFA0446A8B106632F
:10339000D4B10023039302940D9B01930C9B0093E3
:1033A0004B462A4641463846FFF7CBFE2046FFF7FC
:1033B0003DFF012005B0BDE8F083304600F018FB6A
:1033C000E6E74FF0FF30F5E74FF0FF30F2E700009F
:1033D00000B583B0174B0193002300938022164958
:1033E0001648FFF7C3FF012805D0B0F1FF3F17D003
:1033F00003B05DF804FB4FF0500383F31188BFF373
:103400006F8FBFF34F8F0E4B4FF0FF321A600D4B93
:1034100001221A600C4B00221A6000F01FFCE7E743
:103420004FF0500383F31188BFF36F8FBFF34F8FBB
:10343000FEE700BF0C010020A43F00081137000880
:10344000100100202C01002058010020024A1368BE
:1034500001331360704700BFD8000020F8B53A4B25
:103460001B68002B64D1394B1D6801351D60C5B93F
:10347000374B1B681B6843B14FF0500383F311882F
:10348000BFF36F8FBFF34F8FFEE7314A1168314BA7
:10349000186810601960304A136801331360FFF731
:1034A00031FE2E4B1B68AB4238D900242C4B1B68D5
:1034B000DB6A03EB83039A002A4B9B58012B3CD910
:1034C00001243AE00124224B1B681B6843B3204BC4
:1034D0001B68DB68DE6873689D4226D3371D38465B
:1034E000FFF7FDFDB36A1BB106F11800FFF7F7FD0A
:1034F000F36A01229A401C49086802430A6003EB00
:1035000083039A00394617481044FFF7C2FDF26A58
:10351000134B1B68DB6A9A42D4D2D4E70024D2E76B
:103520000E4B4FF0FF321A60C0E70C4A1360BDE744
:103530000E4A13680133136000240D4B1B6803B15E
:1035400001242046F8BD00BFD8000020580100200B
:10355000380000203C000020140100201001002051
:103560003400002040000020E0000020D4000020B3
:103570005C01002038B5334B1B6843B94FF0500352
:1035800083F31188BFF36F8FBFF34F8FFEE700F017
:10359000C9FA2C4B1A68013A1A601B68002B4DD1EE
:1035A000294B1B6823B9002400F0DEFA204638BD01
:1035B0000024264B1B681BB3244BDB68DC6804F13A
:1035C0001800FFF78CFD251D2846FFF788FDE36AEC
:1035D00001229A401E49086802430A6003EB8303F4
:1035E0009A0029461B481044FFF753FDE26A1A4B24
:1035F0001B68DB6A9A42DCD3184B01221A60D8E7B9
:103600000CB1FFF77FFD164B1C6854B1FFF726FF86
:1036100010B1124B01221A60013CF7D1104B00226D
:103620001A600E4B1B685BB10E4B4FF080521A6054
:10363000BFF34F8FBFF36F8F0124B5E70024B3E7CB
:103640000024B1E7D8000020CC00002018010020A1
:10365000E000002040000020340000205C01002039
:10366000D400002004ED00E010B5A8B104460F4BD3
:103670001B6843B14FF0500383F31188BFF36F8F82
:10368000BFF34F8FFEE7FFF7E1FE00212046FFF773
:1036900021FEFFF76FFF38B9054B4FF080521A60DB
:1036A000BFF34F8FBFF36F8F10BD00BFD800002056
:1036B00004ED00E0134B1B6813B310B5FFF7C6FE13
:1036C000114B1C68FFF756FF24B90E4B1B68002BEB
:1036D000F4D110BD00F026FA0B4BDB68DC68201D2E
:1036E000FFF7FDFC094A1368013B1360054A1368A4
:1036F000013B136000F038FA2046FFF719FDE4E7BC
:10370000704700BFD000002044010020CC00002002
:1037100008B5FFF7CFFF064B1B68012BF9D9054B06
:103720004FF080521A60BFF34F8FBFF36F8FF0E7F7
:103730004000002004ED00E0204B1B681BB1204B33
:1037400001221A6070471E4B00221A601D4B1B6835
:10375000B3FA83F3DBB2C3F11F0303EB83018A00E7
:1037600019498A5842B94FF0500383F31188BFF3C7
:103770006F8FBFF34F8FFEE710B413489A00D41831
:10378000A10001444C6864684C601A4491000831FF
:10379000084484420BD003EB83039A000A4B134482
:1037A0005B68DA68094B1A605DF8044B7047616822
:1037B0000548142202FB03025160ECE7D800002008
:1037C0005C010020E00000204000002034000020C8
:1037D000842801D0033070470020704708B5FFF7F8
:1037E000F7FD002008BDF0B585B00F4644680568B8
:1037F0000669B0F90800FFF7EBFF03AB01930090F7
:103800003B46B2B229462046FFF7B0FD012802D15F
:10381000039805B0F0BD0020FBE708B5034600B9EA
:1038200001231846FFF720FF002008BD124A12F0BE
:10383000070F1ED0D11D21F00701C1F540631344CD
:103840000A460E480260002141601344083B23F001
:1038500007030B48036059601960991A516013609F
:10386000084B1960084B1960084B4FF000421A6072
:1038700070474FF44063E4E764010020700D0020BE
:10388000600100206C0D0020680D0020640D0020F8
:1038900010B4134B1A6882421BD359685C188442D7
:1038A00003D1406801445960184641684418A24257
:1038B00013D10C4C2468A2420DD0526811444160CF
:1038C0001A6812680260984200D018605DF8044BD4
:1038D00070471346DEE70460F5E70260F3E700BFD8
:1038E000700D00206001002070B50446FFF7AEFDAA
:1038F0003A4B1B68BBB13A4B1B681C4263D1ACB15D
:10390000083414F0070F11D024F00704083404F031
:1039100007035BB14FF0500383F31188BFF36F8F40
:10392000BFF34F8FFEE7FFF781FFE4E7002C4CD099
:103930002C4B1B68A3424AD32B4B1D6801E02B463E
:1039400015466A68A24202D22A68002AF7D1234AA1
:103950001268AA423DD01E6808362A681A606B6851
:103960001B1B102B10D9281910F0070F08D04FF08F
:10397000500383F31188BFF36F8FBFF34F8FFEE7C0
:1039800043606C60FFF784FF6A6816490B689B1AF6
:103990000B60164909688B4201D214490B60104B29
:1039A0001B6813436B6000232B60FFF7E3FD16F0E9
:1039B000070F10D04FF0500383F31188BFF36F8FC0
:1039C000BFF34F8FFEE70026EFE70026EDE7002666
:1039D000EBE70026E9E7304670BD00BF600100203C
:1039E000640D0020680D0020700D00206C0D00207B
:1039F00080B338B50446A0F1080550F8042C1649E8
:103A000009680A4208D14FF0500383F31188BFF3CD
:103A10006F8FBFF34F8FFEE750F8080C40B14FF0A7
:103A2000500383F31188BFF36F8FBFF34F8FFEE70F
:103A300022EA010244F8042CFFF708FD54F8041CA4
:103A4000064A13680B4413602846FFF721FFFFF76F
:103A500091FD38BD704700BF640D0020680D002047
:103A60000B4B1B68B3F1FF3F08D04FF0500383F3BB
:103A70001188BFF36F8FBFF34F8FFEE74FF05003F6
:103A800083F31188BFF36F8FBFF34F8FFEE700BF43
:103A90000C00002006480068006880F3088862B6C1
:103AA00061B6BFF34F8FBFF36F8F00DF00BF000021
:103AB00008ED00E0DFF80C00016841F470010160DE
:103AC0007047000088ED00E04FF0807340F8043C40
:103AD00021F0010140F8081C054B40F80C3C40F86F
:103AE000202C6FF0020340F8243C4438704700BF9C
:103AF000613A000800000000000000000000000023
:103B0000074B19680868B0E8F04F80F30988BFF3E5
:103B10006F8F4FF0000080F311887047AFF3008083
:103B2000340000204FF0500383F31188BFF36F8FF0
:103B3000BFF34F8F0A4A136801331360012B00D083
:103B40007047084B1B6813F0FF0FF9D04FF050037C
:103B500083F31188BFF36F8FBFF34F8FFEE700BF72
:103B60000C00002004ED00E0094B1B6843B94FF046
:103B7000500383F31188BFF36F8FBFF34F8FFEE7BE
:103B8000013B034A13600BB983F31188704700BFF0
:103B90000C000020000000000000000000000000F9
:103BA000EFF30980BFF36F8F154B1A681EF0100FEB
:103BB00008BF20ED108A20E9F04F10604DF8043D59
:103BC0004FF0500080F31188BFF34F8FBFF36F8F1A
:103BD000FFF7B2FD4FF0000080F3118808BC1968B0
:103BE0000868B0E8F04F1EF0100F08BFB0EC108A64
:103BF00080F30988BFF36F8F704700BFAFF3008079
:103C00003400002008B54FF0500383F31188BFF350
:103C10006F8FBFF34F8FFFF721FC18B1034B4FF0AD
:103C200080521A60002383F3118808BD04ED00E080
:103C3000064B1B68064AA2FB03239B09013B054A6E
:103C40001360054B07221A60704700BF0400002074
:103C5000D34D621014E000E010E000E0314B1A6830
:103C6000314B9A420DD02F4B1A68304B9A4211D1EA
:103C70004FF0500383F31188BFF36F8FBFF34F8F63
:103C8000FEE74FF0500383F31188BFF36F8FBFF34C
:103C90004F8FFEE700B583B0254B1A78D2B2019260
:103CA000FF221A701B78DBB28DF803309DF80330C9
:103CB00003F050031F4A13701F4B07221A609DF830
:103CC000033013F0800F0AD01B4A1368013B1360C6
:103CD0009DF803305B00DBB28DF80330EFE7164A46
:103CE00013681B0203F4E0631360019BDBB2104A0C
:103CF0001370124B1A6842F470021A601A6842F08C
:103D000070421A60FFF794FF0D4B00221A60FFF714
:103D1000D1FE0C4A136843F040431360FFF7BAFE2C
:103D2000FFF79EFE00ED00E071C20F4170C20F412F
:103D300000E400E0780D00207C0D002020ED00E084
:103D40000C00002034EF00E008B50948094B03607F
:103D500008234360022383600361002383610362BD
:103D600000F03EF800B908BDFCF7B8FEFBE700BF65
:103D700084100020005C004010B588B0002303933D
:103D800004930593069307930268134B9A4201D05C
:103D900008B010BD114C636943F40033636163697B
:103DA00003F400330193019B4FF4C05303930223A8
:103DB0000493032306930E23079303A94FF0904027
:103DC000FEF74CFDE36943F40003E361E36903F4A8
:103DD00000030293029BDBE7005C004000100240FE
:103DE00000284FD010B5044690F8713323B1032357
:103DF00084F87133002214E080F87033FFF7BCFFC1
:103E0000F5E7D100891A8B002344012183F829109A
:103E100083F82820002183F82B1059639963D96314
:103E2000013260689042ECD8002211E0D100891A7A
:103E30008B002344002183F8CD1183F8CC2183F833
:103E4000CF11C3F8D811C3F8DC11C3F8E011013267
:103E50009042EBD822680123A2F84030226800206B
:103E6000A2F840002268A2F844002268A2F850009C
:103E700022684FF43F41A2F8401084F8240084F8EF
:103E8000713310BD01207047DFF834D0002103E00A
:103E90000C4B5B58435004310B480C4B42189A4270
:103EA000F6D30B4A02E0002342F8043B094B9A4246
:103EB000F9D3FEF707FF00F011F8FCF7E7FDFEE786
:103EC00000800020B43F0008000000201000002007
:103ED000100000202C140020FEE7000070B50D4EED
:103EE0000D4CA41BA4100025A54209D10B4E0C4C6F
:103EF00000F020F8A41BA4100025A54205D170BD38
:103F000056F8253098470135EEE756F825309847A2
:103F10000135F2E7AC3F0008AC3F0008AC3F0008B9
:103F2000B03F000802440346934200D1704703F8B3
:103F3000011BF9E7F8B500BFF8BC08BC9E46704706
:0C3F4000F8B500BFF8BC08BC9E467047F6
:103F4C00983F0008F12D0008000000000000000060
:103F5C008000000002030405060708090A0B0C0D7B
:103F6C000E0F10100102030405060708090A0B0CBA
:103F7C000D0E0F10000000000000000001020304F1
:103F8C00060708090000000001020304646566616D
:103F9C00756C745461736B0049444C45000000000F
:043FAC00B501000853
:043FB0009101000873
:103FB4000100000000127A0065040000AAAAAAAA5F
:0400000508003E8928
:00000001FF
