:020000040800F2
:10000000008000209929000805100008071000084A
:10001000091000080B1000080D1000080000000077
:100020000000000000000000000000000F100008A9
:10003000111000080000000013100008151000083F
:10004000E9290008E9290008E9290008E929000848
:10005000E9290008E9290008E9290008E929000838
:10006000E9290008E9290008E9290008E929000828
:10007000E92900081D100008E9290008E9290008FD
:10008000E9290008E9290008E9290008E929000808
:100090002D1000083D100008E9290008E929000892
:1000A000E9290008E9290008E9290008E9290008E8
:1000B000E9290008E9290008E9290008E9290008D8
:1000C000E9290008E9290008E9290008E9290008C8
:1000D000E9290008E9290008E9290008E9290008B8
:1000E000E9290008E9290008E9290008E9290008A8
:1000F000E9290008E92900080000000000000000CC
:100100000000000000000000E9290008E9290008BB
:100110000000000000000000E9290008E9290008AB
:10012000E9290008E92900084D100008E92900081C
:100130005D100008E9290008E9290008E9290008FC
:10014000E929000800000000000000000000000095
:10015000000000000000000000000000000000009F
:100160000000000000000000E9290008E92900085B
:10017000E929000800000000E9290008000000004B
:0801800000000000E92900085D
:1001880010B5054C237833B9044B13B10448AFF3C9
:1001980000800123237010BD100000200000000023
:1001A800442A000808B5034B1BB103490348AFF3C1
:1001B800008008BD0000000014000020442A000848
:1001C80081F0004102E000BF83F0004330B54FEA00
:1001D80041044FEA430594EA050F08BF90EA020F6D
:1001E8001FBF54EA000C55EA020C7FEA645C7FEA00
:1001F800655C00F0E2804FEA5454D4EB5555B8BF23
:100208006D420CDD2C4480EA020281EA030382EA93
:10021800000083EA010180EA020281EA0303362D25
:1002280088BF30BD11F0004F4FEA01314FF4801CF8
:100238004CEA113102D0404261EB410113F0004F0A
:100248004FEA03334CEA133302D0524263EB4303C1
:1002580094EA050F00F0A780A4F10104D5F1200E5F
:100268000DDB02FA0EFC22FA05F2801841F10001BA
:1002780003FA0EF2801843FA05F359410EE0A5F18E
:1002880020050EF1200E012A03FA0EFC28BF4CF0BF
:10029800020C43FA05F3C01851EBE37101F0004575
:1002A80007D54FF0000EDCF1000C7EEB00006EEB82
:1002B8000101B1F5801F1BD3B1F5001F0CD349080C
:1002C8005FEA30004FEA3C0C04F101044FEA445263
:1002D80012F5800F80F09A80BCF1004F08BF5FEAEA
:1002E800500C50F1000041EB045141EA050130BDCA
:1002F8005FEA4C0C404141EB010111F4801FA4F16D
:100308000104E9D191F0000F04BF01460020B1FAC1
:1003180081F308BF2033A3F10B03B3F120020CDAF9
:100328000C3208DD02F1140CC2F10C0201FA0CF0D7
:1003380021FA02F10CE002F11402D8BFC2F1200C3C
:1003480001FA02F120FA0CFCDCBF41EA0C019040F2
:10035800E41AA2BF01EB0451294330BD6FEA04043B
:100368001F3C1CDA0C340EDC04F11404C4F1200226
:1003780020FA04F001FA02F340EA030021FA04F338
:1003880045EA030130BDC4F10C04C4F1200220FA8F
:1003980002F001FA04F340EA0300294630BD21FACD
:1003A80004F0294630BD94F0000F83F4801306BF93
:1003B80081F480110134013D4EE77FEA645C18BF87
:1003C8007FEA655C29D094EA050F08BF90EA020F1E
:1003D80005D054EA000C04BF1946104630BD91EA16
:1003E800030F1EBF0021002030BD5FEA545C05D119
:1003F8004000494128BF41F0004130BD14F5800458
:100408003CBF01F5801130BD01F0004545F0FE41CB
:1004180041F470014FF0000030BD7FEA645C1ABF00
:10042800194610467FEA655C1CBF0B46024650EA37
:10043800013406BF52EA033591EA030F41F4002163
:1004480030BD00BF90F0000F04BF0021704730B5E9
:100458004FF4806404F132044FF000054FF00001BE
:1004680050E700BF90F0000F04BF0021704730B57F
:100478004FF4806404F1320410F0004548BF404254
:100488004FF000013EE700BF42004FEAE2014FEAA9
:1004980031014FEA02701FBF12F07F4393F07F4F84
:1004A80081F06051704732F07F4208BF704793F087
:1004B8007F4F04BF41F40021704730B54FF460749A
:1004C80001F0004521F000411CE700BF50EA01029D
:1004D80008BF704730B54FF000050AE050EA010246
:1004E80008BF704730B511F0004502D5404261EBB6
:1004F80041014FF4806404F132045FEA915C3FF4F7
:10050800D8AE4FF003025FEADC0C18BF03325FEA93
:10051800DC0C18BF033202EBDC02C2F1200300FA44
:1005280003FC20FA02F001FA03FE40EA0E0021FA69
:1005380002F11444BDE600BF70B54FF0FF0C4CF457
:10054800E06C1CEA11541DBF1CEA135594EA0C0F09
:1005580095EA0C0F00F0DEF82C4481EA030621EA44
:100568004C5123EA4C5350EA013518BF52EA03357F
:1005780041F4801143F4801338D0A0FB02CE4FF031
:100588000005E1FB02E506F00042E0FB03E54FF061
:100598000006E1FB03569CF0000F18BF4EF0010E59
:1005A800A4F1FF04B6F5007F64F5407404D25FEA55
:1005B8004E0E6D4146EB060642EAC62141EA555108
:1005C8004FEAC52040EA5E504FEACE2EB4F1FD0C4A
:1005D80088BFBCF5E06F1ED8BEF1004F08BF5FEAC8
:1005E800500E50F1000041EB045170BD06F000467A
:1005F80046EA010140EA020081EA0301B4EB5C0427
:10060800C2BFD4EB0C0541EA045170BD41F480111E
:100618004FF0000E013C00F3AB8014F1360FDEBF43
:10062800002001F0004170BDC4F10004203C35DA1F
:100638000C341BDC04F11404C4F1200500FA05F3A2
:1006480020FA04F001FA05F240EA020001F0004243
:1006580021F0004110EBD37021FA04F642EB0601B9
:100668005EEA430E08BF20EAD37070BDC4F10C04E3
:10067800C4F1200500FA04F320FA05F001FA04F2A7
:1006880040EA020001F0004110EBD37041F1000193
:100698005EEA430E08BF20EAD37070BDC4F120059E
:1006A80000FA05F24EEA020E20FA04F301FA05F206
:1006B80043EA020321FA04F001F0004121FA04F2AE
:1006C80020EA020000EBD3705EEA430E08BF20EA7E
:1006D800D37070BD94F0000F0FD101F000464000B8
:1006E80041EB010111F4801F08BF013CF7D041EA3A
:1006F800060195F0000F18BF704703F0004652003E
:1007080043EB030313F4801F08BF013DF7D043EA0E
:100718000603704794EA0C0F0CEA135518BF95EAC4
:100728000C0F0CD050EA410618BF52EA4306D1D14B
:1007380081EA030101F000414FF0000070BD50EA6A
:10074800410606BF1046194652EA430619D094EAF4
:100758000C0F02D150EA013613D195EA0C0F05D1DE
:1007680052EA03361CBF104619460AD181EA030132
:1007780001F0004141F0FE4141F470014FF00000EA
:1007880070BD41F0FE4141F4780170BD70B54FF085
:10079800FF0C4CF4E06C1CEA11541DBF1CEA135505
:1007A80094EA0C0F95EA0C0F00F0A7F8A4EB0504E7
:1007B80081EA030E52EA03354FEA013100F08880DE
:1007C8004FEA03334FF0805545EA131343EA1263A7
:1007D8004FEA022245EA111545EA10654FEA00265C
:1007E8000EF000419D4208BF964244F1FD0404F515
:1007F800407402D25B084FEA3202B61A65EB030571
:100808005B084FEA32024FF480104FF4002CB6EB2D
:10081800020E75EB030E22BFB61A754640EA0C00AD
:100828005B084FEA3202B6EB020E75EB030E22BFED
:10083800B61A754640EA5C005B084FEA3202B6EB2E
:10084800020E75EB030E22BFB61A754640EA9C00ED
:100858005B084FEA3202B6EB020E75EB030E22BFBD
:10086800B61A754640EADC0055EA060E18D04FEA7B
:10087800051545EA16754FEA06164FEAC30343EA1B
:1008880052734FEAC2025FEA1C1CC0D111F4801FE8
:100898000BD141EA00014FF000004FF0004CB6E7E1
:1008A80011F4801F04BF01430020B4F1FD0C88BF80
:1008B800BCF5E06F3FF6AFAEB5EB030C04BFB6EB8B
:1008C800020C5FEA500C50F1000041EB045170BD7E
:1008D8000EF0004E4EEA113114EB5C04C2BFD4EBAB
:1008E8000C0541EA045170BD41F480114FF0000E2F
:1008F800013C90E645EA060E8DE60CEA135594EAAB
:100908000C0F08BF95EA0C0F3FF43BAF94EA0C0FAD
:100918000AD150EA01347FF434AF95EA0C0F7FF422
:1009280025AF104619462CE795EA0C0F06D152EA76
:1009380003353FF4FDAE1046194622E750EA41065A
:1009480018BF52EA43067FF4C5AE50EA41047FF46B
:100958000DAF52EA43057FF4EBAE12E74FEA4102CE
:10096800B2F1E04324BFB3F5001CDCF1FE5C0DD905
:1009780001F0004C4FEAC0024CEA5070B2F1004F4F
:1009880040EB830008BF20F00100704711F0804F52
:1009980021D113F13872BCBF01F00040704741F417
:1009A80080114FEA5252C2F11802C2F1200C10FA1B
:1009B8000CF320FA02F018BF40F001004FEAC123FF
:1009C8004FEAD32303FA0CFC40EA0C0023FA02F3A3
:1009D8004FEA4303CCE77FEA625307D150EA013379
:1009E8001EBF4FF0FE4040F44000704701F0004049
:1009F80040F0FE4040F40000704700BF30B59BB0A7
:100A0800002412941394159416940B940C940D943A
:100A18000E940F942C222146684602F007F8012212
:100A280010924FF48033119314920225179518935E
:100A38004FF4E013199310A800F0C2FF0F230B9393
:100A48000C950D944FF480630E930F9429460BA8D0
:100A580001F0F2FA4FF4006400944FF02843089331
:100A6800684601F0B9FB4FF4007001F0E3FE204640
:100A780001F0E0FE1BB030BD08B500F069FFFFF7DC
:100A8800BDFF00F00FF800F065F900F0DDF900F0A7
:100A980093F900F0E9F800F087F801F015FFFEE798
:100AA8007047000030B58DB0002409940A940B9467
:100AB800374B5A6942F400225A615A6902F40022FB
:100AC8000192019A5A6942F480025A615A6902F401
:100AD80080020292029A5A6942F400325A615A69B3
:100AE80002F400320392039A5A6942F480225A614E
:100AF8005A6902F480220492049A5A6942F4001254
:100B08005A615A6902F400120592059A5A6942F428
:100B180080125A615B6903F480130693069B4FF4B5
:100B2800604307930325089507A91A4801F058FC64
:100B380048F26F7307930895099407A94FF09040FE
:100B480001F04EFC4FF47F7307930895099407A9A9
:100B5800114801F045FC4FF4407307930895099438
:100B680007A90E4801F03CFC4FF4807307930895E1
:100B7800099407A90A4801F033FCC0230793089594
:100B8800099407A9074801F02BFC0DB030BD00BF40
:100B98000010024000080048000400480010004807
:100BA800000C00480014004808B50B480B4B0360C4
:100BB8001223436000238360C360036143610376AB
:100BC80043768376C3760377437700F063FA00B9F8
:100BD80008BDFFF765FFFBE7340000200064004014
:100BE80000B589B0002303930493059306930793F4
:100BF80002681C4B9A4202D009B05DF804FB03F569
:100C0800D633DA6942F00072DA61DA6902F000720A
:100C18000192019A5A6942F400325A615B6903F4FD
:100C280000330293029B4FF4C053039302230493AF
:100C3800032306930923079303A94FF0904001F07B
:100C4800CFFB00221146142001F09EFD142001F074
:100C5800CFFD00221146152001F096FD152001F068
:100C6800C7FDC9E70064004000B585B000230193C3
:100C7800029303930B480C4B036000F0EBFB50B955
:100C880000220192029201A9064800F03BFC28B913
:100C980005B05DF804FBFFF703FFF1E7FFF700FF7E
:100CA800F6E700BF5C0000200074004030B589B052
:100CB8000023039304930593069307930268214B3B
:100CC8009A4201D009B030BD044603F5CE33DA6943
:100CD80042F00052DA61DA6902F000520192019A98
:100CE8005A6942F400325A615B6903F40033029393
:100CF800029B102503950323049303A94FF090400A
:100D080001F06EFB1048114B0360456000238360BF
:100D1800C3604FF4807202614FF480624261202206
:100D28008261C36101F062FC40B9094A136843F467
:100D380000531360044BA3605C62C3E7FFF7B0FE87
:100D4800F3E700BF0074004070000020300002404C
:100D58000000014000B583B0164B5A6942F0020208
:100D68005A615A6902F002020092009A5A6942F0E6
:100D780001025A615B6903F001030193019B0022A0
:100D880011460D2001F000FD0D2001F031FD00227B
:100D980011463A2001F0F8FC3A2001F029FD002222
:100DA80011463C2001F0F0FC3C2001F021FD03B08D
:100DB8005DF804FB0010024000B585B000230093E5
:100DC8000193029303931D481D4A026043604FF04C
:100DD80080728260C3604FF40073036100F0FAFB15
:100DE800E8B90021154800F0C3FCD8B900210091EA
:100DF8000191029103916A46104800F03DFCA0B9A8
:100E0800002210490D4800F05BFC88B901220D4909
:100E18000A4800F087FC70B905B05DF804FBFFF7DD
:100E28003FFEDEE7FFF73CFEE0E7FFF739FEE7E7C6
:100E3800FFF736FEEAE7FFF733FEEDE73C01002057
:100E4800006001404000060000B585B00023009313
:100E58000193029303931D481D4A026043604FF0BB
:100E680080728260C3604FF40073036100F0B2FBCC
:100E7800E8B90021154800F07BFCD8B900210091A1
:100E88000191029103916A46104800F0F5FBA0B960
:100E9800002210490D4800F013FC88B901220D49C1
:100EA8000A4800F03FFC70B905B05DF804FBFFF795
:100EB800F7FDDEE7FFF7F4FDE0E7FFF7F1FDE7E711
:100EC800FFF7EEFDEAE7FFF7EBFDEDE78001002015
:100ED800006801400001080010B58AB004460023EC
:100EE8000593069307930893099303683B4A934233
:100EF80004D03B4A934237D00AB010BD394B9A69A7
:100F080042F080729A619A6902F080720192019AA5
:100F18005A6942F480225A615B6903F48023029380
:100F2800029B03230593069305A92F4801F058FA5D
:100F38002E482F4B03600023436083608022C260E9
:100F48004FF4807202614FF48062426183614FF412
:100F58008053C36101F04AFB18B9244B63615C629A
:100F6800CAE7FFF79DFDF8E71E4B9A6942F08062D9
:100F78009A619A6902F080620392039A5A6942F46C
:100F880080225A615B6903F480230493049B4FF425
:100F9800404305930323069305A9134801F020FA5B
:100FA8001448154B03600023436083608023C360AB
:100FB8004FF4007303614FF400634361202383619E
:100FC8004FF48053C36101F011FB18B9094B6361F9
:100FD8005C6291E7FFF764FDF8E700BF006001403D
:100FE800006801400010024000040048B4000020DE
:100FF80030040240F8000020580402407047FEE721
:10100800FEE7FEE7FEE770477047704708B500F057
:10101800B1FC08BD08B5024801F04AFB08BD00BF95
:101028007000002008B5024800F0E7F808BD00BFCE
:101038003400002008B5024800F0DFF808BD00BF02
:101048003400002008B5024801F032FB08BD00BF9B
:10105800B400002008B5024801F02AFB08BD00BF13
:10106800F800002082B00A4B9A6942F001029A61A6
:101078009A6902F001020092009ADA6942F08052FD
:10108800DA61DB6903F080530193019B02B070477A
:1010980000100240002800F0A18038B5044690F8FE
:1010A8002030D3B12268136823F00203136000F0E4
:1010B8006DFC054623685A6812F0020F10D000F044
:1010C80065FC401B0A28F5D9636A43F40033636260
:1010D800052384F82030012038BDFFF781FDE1E7C2
:1010E8001A6842F001021A6000F050FC05462368B5
:1010F8005A6812F0010F0DD100F048FC401B0A2875
:10110800F5D9636A43F400336362052384F8203019
:101118000120E1E7227E012A3DD01A6822F08002F0
:101128001A60637E012B3BD02268136823F04003CA
:101138001360A37E012B39D02268136823F02003A3
:101148001360E37E012B37D02268136843F0100345
:101158001360237F012B35D02268136823F008031E
:101168001360637F012B33D02268136823F00403D4
:101178001360A368E2681343226913436269134347
:101188006268013A21681343CB6100206062012341
:1011980084F82030A0E71A6842F080021A60C0E79D
:1011A8002268136843F040031360C2E7226813689B
:1011B80043F020031360C4E72268136823F0100388
:1011C8001360C6E72268136843F008031360C8E792
:1011D8002268136843F004031360CAE701207047CC
:1011E800704770477047704770477047704770473F
:1011F800704770477047704770472DE9F84F0546AC
:1012080003685C695F689E68D3F80CA0D3F81090F7
:10121800D3F8188014F0010F5AD016F0010F17D028
:1012280001229A6016F0020F08D116F0040F30D18F
:1012380016F0080F07D04FF4805B0BE0FFF7D0FFE4
:101248004FF0000B06E0FFF7CEFF4FF0000B01E078
:101258004FF0000B16F4807F0BD02B684FF4807290
:101268009A6016F4007F17D116F4806F18D04BF4EB
:10127800005B16F4803F2DD02B684FF480329A60C3
:1012880016F4003F16D116F4802F17D04BF4004BFC
:1012980020E04FF4006BDDE72846FFF7A2FFE8E700
:1012A80016F4006F02D04BF4804BE2E72846FFF7B4
:1012B8009BFFDEE72846FFF795FF0BE016F4002FAB
:1012C80002D04BF4803B05E02846FFF78EFF01E093
:1012D8004FF0000B14F0080F07D01AF0100F04D0CD
:1012E8004BF4007B2B681022DA6014F0040F02D054
:1012F8001AF0080F6AD114F0020F04D02B68DB68CB
:1013080013F0030F69D114F0400F07D019F0100F34
:1013180004D04BF4806B2B6810221A6114F0200F54
:1013280002D019F0080F5CD114F0100F04D02B680C
:101338001B6913F0030F5BD114F4003F02D017F0C0
:10134800100F59D114F4803F02D017F0080F5AD16A
:1013580014F4004F35D017F0040F2FD014F4807F09
:1013680004D018F0010F01D04BF0010B14F4007FEA
:1013780004D018F0020F01D04BF0020B14F4806F68
:1013880004D018F0040F01D04BF0040B14F4006FD4
:1013980014D018F0700811D0B8F1300F46D039D9F0
:1013A800B8F1500F48D0B8F1600F48D0B8F1400FED
:1013B8003FD02A68936923F0700393612B68042255
:1013C8005A60BBF1000F3DD1BDE8F88F2B680822A9
:1013D800DA602846FFF70BFF8DE72846FFF706FF80
:1013E80091E72B6808221A612846FFF702FF9BE75E
:1013F8002846FFF7FDFE9FE72B6810225A60284613
:10140800FFF7F8FE9EE72B6808225A602846FFF788
:10141800F2FE9DE7B8F1100F05D0B8F1200FC8D142
:101428004BF0100BC5E74BF0080BC2E74BF0200B55
:10143800BFE74BF0400BBCE74BF0800BB9E74BF430
:10144800807BB6E76B6A43EA0B036B622846FFF7BB
:10145800D3FEB9E770B110B50446037933B102235E
:101468002371002020610123237110BD4371FFF710
:101478001DFCF4E70120704710B483B000240194E8
:101488000068019051B90199114408310191019AFC
:101498001360002003B05DF8044B704701991144B4
:1014A80014310191F3E74379012B29D010B40123BA
:1014B800437102220271046822688B40134323603F
:1014C80091B90268136803F03C033C2B07D0012351
:1014D80003710023437118465DF8044B7047536845
:1014E80043F001035360F2E70268136803F47013D2
:1014F800B3F5701FEBD1536843F002035360E6E77E
:10150800022070474379012B1FD070B40125457123
:10151800022303710668336840F6FE74944023EA98
:1015280004040B6849680B43934023433360046801
:101538002368C02101FA02F223EA0203236005713D
:1015480000234371184670BC704702207047026838
:10155800136823F000431360704738B504460268E7
:10156800136843F00043136000F010FA054623683F
:101578009B68002B06DB00F009FA401BC828F6D947
:10158800032000E0002038BD10B50446836A6BB91B
:101598000268536843F40003536094F83C30012B0D
:1015A80015D0052384F83C30002010BDFFF7D5FF87
:1015B80020B1FF2384F83C300320F6E72268136843
:1015C80043F4004313602046FFF7C1FFE5E7032318
:1015D800E8E7000000284AD010B5044600238361DC
:1015E800C3610122026242628362C3624FF4005205
:1015F8000263436383630364FFF76EFC2268136826
:1016080023F4E053136021680B686268E0680243C2
:1016180013430B602268536823F080735360226879
:101628005368A1680B435360124B1B6803F4407363
:10163800226993420ED12268536843F00103536034
:1016480023689B6813F4004FFAD1012384F83C30D7
:10165800002010BD074B1A6822F440721A601A68FD
:1016680021690A431A60022000F096F9E3E7012095
:10167800704700BF00600140F8B590F83C30012B7E
:1016880002D001252846F8BD17460E460446FFF746
:1016980064FF054620B1FF2384F83C300325F1E7B9
:1016A800216801EB86013B687A681343BA681343E3
:1016B800FA6813430B622046FFF749FFE2E7000090
:1016C800F8B590F83C30012B02D001273846F8BD18
:1016D80016460C460546FFF740FF0746B8B9104BBB
:1016E8009C4219D0210C2868036C890001F01F0165
:1016F80003228A4023EA020303642A68136C06FA69
:1017080001F1194311642846FFF721FFDEE7FF23A3
:1017180085F83C300327D9E72B685E64F3E700BF00
:101728000001080090F83C30013BDBB2FD2B1AD8D1
:1017380030B40468636823F49E036360012A09D007
:1017480004686368090C0904194361608261002018
:1017580030BC704705686B68044C0C40234343F465
:1017680080036B60F2E70120704700BF0000BFFFF5
:1017780002680A4B9A4209D090F83C20531EDBB20B
:10178800012B07D9042A05D0012070470129F3D17C
:101798000120704781620020704700BF006001404F
:1017A80070B590F83C30012B02D00125284670BD59
:1017B8000E460446FFF7D1FE054620B1FF2384F804
:1017C8003C300325F2E72268536823F00603536090
:1017D80023685968314359602046FFF7B8FE2268EC
:1017E800536843F010035360022384F83C30DDE76C
:1017F80090F83C30022B01D00120704770B50D469F
:10180800044600F0C3F8064623689A6812F0010FF0
:101818000BD1B5F1FF3FF7D000F0B8F8801BA84214
:101828000CD8002DF0D1032007E0DA6842F001025D
:10183800DA60012384F83C30002070BD0320FCE707
:1018480010B50468246814F4803F3DD1836A43B915
:10185800846934B94469A4691CB9012A01D00120FA
:1018680033E02BB983691BB943699B69202B2DD0C1
:1018780090F83C30012B03D0042B01D0012024E048
:101888004369134C9C624369124C1C6343699C690D
:10189800202C12D013460A4604460068016841F419
:1018A8000031016021686431606900F0C7FE38B119
:1018B800FF2384F83C30012007E0074CDC62E9E7AD
:1018C8002046FFF761FE00E0012010BD0120FCE783
:1018D800F1180008FD180008E7180008704708B557
:1018E800406AFFF7FBFF08BD08B5406A01F014F82D
:1018F80008BD704708B5406A03230364FFF7F9FF82
:1019080008BD000010B504460E4B18784FF47A73E2
:10191800B3FBF0F30C4A1068B0FBF3F000F074FF6F
:1019280068B90F2C01D901200AE0002221464FF0A6
:10193800FF3000F029FF054B1C60002000E001206B
:1019480010BD00BF00000020080000200400002097
:1019580008B5074A136843F010031360032000F02A
:1019680001FF0020FFF7CEFFFFF77CFB002008BD3A
:1019780000200240034A1168034B1B780B44136094
:10198800704700BFC401002000000020014B186808
:10199800704700BFC401002038B50446FFF7F6FFC2
:1019A8000546B4F1FF3F02D0044B1B781C44FFF7F7
:1019B800EDFF401BA042FAD338BD00BF0000002055
:1019C800002800F0EB8270B582B00446036813F07B
:1019D800010F3BD0B54B5B6803F00C03042B1ED002
:1019E800B24B5B6803F00C03082B13D06368B3F5A4
:1019F800803F68D0002B40F0928003F1804303F5CC
:101A080004331A6822F480321A601A6822F4802299
:101A18001A605DE0A54B5B6813F4803FE6D04FF495
:101A2800003393FAA3F3A14B19684FF4003393FAE8
:101A3800A3F3B3FA83F303F01F03012202FA03F3BB
:101A48000B4203D06368002B00F0AA82236813F0CE
:101A5800020F00F0C580954B5B6813F00C0F00F087
:101A68009C80924B5B6803F00C03082B00F08F807E
:101A78002369002B00F0F280012292FAA2F3B3FA54
:101A880083F303F1845303F584139B001A60FFF773
:101A98007DFF0546022393FAA3F3844B19680223BA
:101AA80093FAA3F3B3FA83F303F01F03012202FAB4
:101AB80003F30B4240F0C380FFF768FF401B022886
:101AC800E8D9032075E2794A136843F48033136038
:101AD800764AD36A23F00F03A1680B43D362636885
:101AE800002B36D0FFF752FF05464FF4003393FA28
:101AF800A3F36E4B19684FF4003393FAA3F3B3FAC8
:101B080083F303F01F03012202FA03F319429DD164
:101B1800FFF73CFF401B6428E7D9032049E2B3F5EF
:101B2800A02F09D0614B1A6822F480321A601A6813
:101B380022F480221A60CBE703F18043A3F53C33FB
:101B48001A6842F480221A601A6842F480321A60D5
:101B5800BEE7FFF71BFF05464FF4003393FAA3F3E4
:101B6800524B19684FF4003393FAA3F3B3FA83F393
:101B780003F01F03012202FA03F319423FF466AF90
:101B8800FFF704FF401B6428E6D9032011E2474B06
:101B98005B6813F4803F7FF46BAF022393FAA3F3DF
:101BA800424B1968022393FAA3F3B3FA83F303F0C1
:101BB8001F03012202FA03F3194203D02369934257
:101BC80040F0F0813948036823F0F8036169F8228E
:101BD80092FAA2F2B2FA82F201FA02F21343036015
:101BE800236813F0080F00F08D80A369002B61D0E3
:101BF800012191FAA1F2B2FA82F22D4B13449B0013
:101C08001960FFF7C3FE0546022393FAA3F293FA7D
:101C1800A3F293FAA3F2254A516A93FAA3F3B3FA0B
:101C280083F303F01F03012202FA03F30B4269D185
:101C3800FFF7ACFE401B0228E6D90320B9E11B4898
:101C4800036823F0F8036169F82292FAA2F2B2FA63
:101C580082F201FA02F213430360C1E7012393FA07
:101C6800A3F3B3FA83F303F1845303F584139B00BE
:101C780000221A60FFF78AFE0546022393FAA3F3AF
:101C88000A4B1968022393FAA3F3B3FA83F303F018
:101C98001F03012202FA03F31942A1D0FFF776FECF
:101CA800401B0228E9D9032083E100BF001002404D
:101CB80020819010012292FAA2F2B2FA82F2BF4B6E
:101CC80013449B0000221A60FFF760FE05460223BA
:101CD80093FAA3F293FAA3F293FAA3F2B84A516AD9
:101CE80093FAA3F3B3FA83F303F01F03012202FA72
:101CF80003F30B4206D0FFF749FE401B0228E6D942
:101D0800032056E1236813F0040F00F0A980AC4BC0
:101D1800DB6913F0805F20D1A94BDA6942F0805269
:101D2800DA61DB6903F080530193019B0125A54B20
:101D38001B6813F4807F12D0E368012B23D073BB98
:101D480003F1804303F504331A6A22F001021A6290
:101D58001A6A22F004021A621AE00025E7E7994A93
:101D6800136843F480731360FFF710FE0646954B23
:101D78001B6813F4807FDFD1FFF708FE801B6428FF
:101D8800F5D9032015E18E4A136A43F00103136263
:101D9800E368002B3CD0FFF7F9FD06462EE0052B43
:101DA80009D0874B1A6A22F001021A621A6A22F0D5
:101DB80004021A62ECE7824B1A6A42F004021A62C1
:101DC8001A6A42F001021A62E2E7022393FAA3F3C5
:101DD8007B4B596A022393FAA3F3B3FA83F303F014
:101DE8001F03012202FA03F3194238D1FFF7CEFD8F
:101DF800801B41F28833984200F2D680022393FA7E
:101E0800A3F293FAA3F3002BDFD06D4B196AE1E735
:101E1800FFF7BCFD064618E0022393FAA3F3684BCC
:101E2800596A022393FAA3F3B3FA83F303F01F0367
:101E3800012202FA03F3194211D0FFF7A7FD801B14
:101E480041F28833984200F2B180022393FAA3F258
:101E580093FAA3F3002BDFD0594B196AE1E7B5BB1E
:101E6800E369002B00F0A480554A526802F00C0286
:101E7800082A00F0A080022B2FD04FF0807393FA2D
:101E8800A3F3B3FA83F303F1845303F584139B009C
:101E980000221A60FFF77AFD04464FF0007393FAA8
:101EA800A3F3474B19684FF0007393FAA3F3B3FAFF
:101EB80083F303F01F03012202FA03F319426BD0E4
:101EC800FFF764FD001B0228E7D9032071E03C4AB4
:101ED800D36923F08053D361C2E74FF0807393FA3C
:101EE800A3F3B3FA83F303F1845303F584139B003C
:101EF80000221A60FFF74AFD05464FF0007393FA77
:101F0800A3F32F4B19684FF0007393FAA3F3B3FAB6
:101F180083F303F01F03012202FA03F3194206D0E8
:101F2800FFF734FD401B0228E7D9032041E024498C
:101F38004B6823F47413626A206A024313434B60AC
:101F48004FF0807393FAA3F3B3FA83F303F1845346
:101F580003F584139B0001221A60FFF717FD04465E
:101F68004FF0007393FAA3F3154B19684FF0007301
:101F780093FAA3F3B3FA83F303F01F03012202FADF
:101F880003F3194206D1FFF701FD001B0228E7D928
:101F980003200EE000200CE000200AE0012070473A
:101FA800012006E0012004E0032002E0032000E015
:101FB800002002B070BD0120FBE700BF2081901017
:101FC8000010024000700040164B5B6803F00C02E2
:101FD800082A01D01448704703F470114FF47012A6
:101FE80092FAA2F2B2FA82F221FA02F20F49885C5E
:101FF8000C4AD26A02F00F020F2191FAA1F1B1FA4C
:1020080081F1CA400A498A5C13F4803F05D0064B27
:10201800B3FBF2F300FB03F07047064B03FB00F041
:10202800704700BF0010024000127A005C2A0008C6
:102038006C2A000800093D00002800F0BD8070B53A
:102048000446614B1B6803F007038B420BD25E4AC0
:10205800136823F007030B431360136803F00703A7
:102068008B4240F0AB80236813F0020F06D0574A2A
:10207800536823F0F003A068034353600D462368B8
:1020880013F0010F5AD06368012B2DD0022B40D0DA
:10209800022292FAA2F24D4A1068022292FAA2F2A1
:1020A800B2FA82F202F01F02012101FA02F2104292
:1020B80000F0868045494A6822F0030213434B60CA
:1020C800FFF764FC0646414B5B6803F00C0362684B
:1020D800B3EB820F32D0FFF759FC801B41F28833F3
:1020E8009842F0D9032066E04FF4003292FAA2F247
:1020F800364A10684FF4003292FAA2F2B2FA82F22B
:1021080002F01F02012101FA02F20242D2D101209B
:1021180051E04FF0007292FAA2F22C4A10684FF088
:10212800007292FAA2F2B2FA82F202F01F020121C0
:1021380001FA02F21042BDD101203CE0224B1B689B
:1021480003F00703AB420AD91F4A136823F00703B9
:102158002B431360136803F00703AB4232D12368A3
:1021680013F0040F06D0194A536823F4E063E168BA
:102178000B435360236813F0080F07D0134A5368C2
:1021880023F46053216943EAC1035360FFF71CFF3E
:102198000E4B5B6803F0F003F02292FAA2F2B2FA57
:1021A80082F2D3400A4AD35CD8400A4B1860002018
:1021B800FFF7A8FB002070BD012070470120FAE757
:1021C8000120F8E70120F6E7002002400010024055
:1021D8007C2A000808000020F0B583B00446036894
:1021E80013F4803F48D07B4BDB6913F0805F40F0ED
:1021F800A980784BDA6942F08052DA61DB6903F032
:1022080080530193019B0125734B1B6813F4807F56
:1022180000F09A806F4B1B6A13F4407322D06268F7
:1022280002F440729A421DD06A48016A21F440764D
:102238004FF4803393FAA3F2B2FA82F2674F3A442A
:1022480092004FF0010CC2F800C093FAA3F3B3FA5E
:1022580083F33B449B0000221A60066211F0010FD1
:1022680040F087805B4A136A23F4407361680B432C
:102278001362002D40F0A480236813F0010F06D0EC
:10228800544A136B23F00303A1680B4313632368B9
:1022980013F0020F06D04F4A136B23F44033E16862
:1022A8000B431363236813F0040F06D0494A136BDA
:1022B80023F4402321690B431363236813F0200F91
:1022C80006D0444A136B23F0100361690B43136370
:1022D800236813F4003F06D03E4A536823F4800372
:1022E800A16A0B435360236813F0400F06D0394AA4
:1022F800136B23F02003A1690B431363236813F0C6
:10230800800F06D0334A536823F44043E1690B43F6
:102318005360236813F4006F06D02E4A536823F0E5
:102328007843216A0B435360236813F4806F4ED0BF
:10233800284A136B23F04003616A0B4313630020A0
:1023480003B0F0BD00255FE7234A136843F48073A8
:102358001360FFF71BFB06461F4B1B6813F4807FB7
:102368007FF458AFFFF712FB801B6428F4D90320D1
:10237800E6E7FFF70BFB064615E0164B196A022342
:1023880093FAA3F3B3FA83F303F01F03012202FACB
:1023980003F30B427FF466AFFFF7F8FA801B41F2B4
:1023A8008833984211D8022393FAA3F293FAA3F33D
:1023B800002BE2D1022393FAA3F3064B596ADEE716
:1023C800D36923F08053D36156E70320B8E7002090
:1023D800B6E700BF00100240007000400081901076
:1023E800F0B482B0002336E0042400E00024B440B6
:1023F8003C4302355B4E46F825405B4C2568D44388
:1024080004EA05064F6817F4803F01D042EA050642
:10241800554D2E606D6804EA05064F6817F4003FB5
:1024280001D042EA0506504D6E60AD6804EA050623
:102438004F6817F4801F01D042EA05064A4DAE6086
:10244800ED682C404E6816F4001F01D042EA0504DE
:10245800454AD46001330A6832FA03F47ED0012475
:102468009C402240F6D04D68022D01D0122D10D18B
:10247800DE08083650F826C003F00705AF000F2520
:10248800BD402CEA050C0D69BD4045EA0C0540F835
:10249800265006685F000325BD40ED4305EA060C9B
:1024A8004E6806F00306BE4046EA0C0606604E6813
:1024B80006F1FF3CBCF1010F03D9112E01D0122EF9
:1024C80010D1866805EA060CCE68BE4046EA0C06BE
:1024D8008660466826EA04044E68C6F300169E40E5
:1024E80026434660C46825408C68BC402C43C460C1
:1024F8004C6814F0805FADD01C4CA56945F001050F
:10250800A561A46904F001040194019C9D08AE1C16
:10251800144C54F8267003F00304A6000F24B440AA
:1025280027EA0407B0F1904F3FF460AF104CA04287
:102538000ED004F58064A0420CD004F58064A0425B
:102548000AD004F58064A0423FF44EAF05244EE75C
:1025580001244CE702244AE7032448E702B0F0BC10
:10256800704700BF00000140000401400010024015
:102578000004004870B4066CC56B0124B4406C605C
:10258800046863604368102B05D00368996003688A
:10259800DA6070BC704703689A600368D960F8E72E
:1025A80002680C4B9A420AD80B4B13440B4AA2FB05
:1025B80003231B099B000364094BC3637047094B42
:1025C8001344064AA2FB03231B099B000364064B22
:1025D800C363704707040240F8FFFDBFCDCCCCCCE5
:1025E80000000240F8FBFDBF0004024020B310B514
:1025F8000446022380F8213001680A6822F47F52D9
:1026080022F03002436880680343E068034320698E
:10261800034360690343A0690343E0690343134329
:102628000B602046FFF7BCFF0020A063012384F85D
:10263800213084F8200010BD0120704738B590F88B
:102648002040012C32D0012480F8204090F821400D
:10265800012C04D0002380F82030022038BD044625
:10266800022084F821000020A0632568286820F053
:10267800010028602046FFF77DFFE36A5BB122680E
:10268800136843F00E0313602268136843F00103D4
:1026980013600020E2E72268136843F00A0313601E
:1026A8002268136823F004031360EDE70220D5E7DE
:1026B80038B5C36B1A6804682568016C04238B401D
:1026C800134213D015F0040F10D0236813F0200F15
:1026D80003D1236823F004032360016CC26B042335
:1026E8008B405360C36A03B1984738BD02238B40BF
:1026F80013421AD015F0020F17D0236813F0200FD9
:1027080006D1236823F00A032360012380F82130CF
:10271800016CC26B02238B405360002380F8203089
:10272800836A002BE1D09847DFE7082303FA01F119
:102738001142DAD015F0080FD7D0236823F00E0322
:102748002360026CC16B012303FA02F24A608363BF
:1027580080F82130002380F82030036B002BC4D090
:102768009847C2E7074AD36823F4E0631B041B0CAD
:10277800000200F4E060184340F0BF6040F400300D
:10278800D060704700ED00E030B4174BDB68C3F34E
:102798000223C3F10704042C28BF04241D1D062DA1
:1027A80001D9033B00E000234FF0FF3505FA04F49C
:1027B80021EA0401994005FA03F322EA03031943C5
:1027C800002809DB0901C9B200F1604000F5614049
:1027D80080F8001330BC704700F00F000901C9B23F
:1027E800024B1954F6E700BF00ED00E014ED00E0DD
:1027F80000F01F02400901239340024A42F82030AA
:10280800704700BF00E100E00138B0F1807F0AD2D4
:10281800064B5860064AF02182F823100020986081
:1028280007221A6070470120704700BF10E000E0DF
:1028380000ED00E082B0084BDA6942F08052DA61BC
:10284800DB6903F080530193019B044A1368184322
:10285800106002B0704700BF0010024000700040D6
:102868001549D1F8883043F47003C1F88830134B08
:102878001A6842F001021A605868114A02405A6008
:102888001A6822F0847222F480321A601A6822F4DC
:1028980080221A605A6822F4FE025A60DA6A22F02C
:1028A8000F02DA62186B074A02401A6300229A6024
:1028B8004FF000638B60704700ED00E000100240AD
:1028C8000CC07FF8CCFC00FF08B50F4C0021204657
:1028D800FEF7E9FD0D4B1B88002211462046FEF746
:1028E800CBFD0B4C00212046FEF75AFF4FF0FF317D
:1028F8002046FEF77DFF322206492046FEF7A0FF5C
:102908000A20FFF749F8FBE75C0000200C000020D4
:1029180080010020C801002008B5174B834200D071
:1029280008BD0023154A1360312B09D8144A32F91F
:10293800230012490A6802440A600133DBB2F3E754
:102948000E4B18684042FDF78DFD00220D4BFDF738
:102958001DFF00220C4BFDF739FC05A3D3E900232A
:10296800FDF714FFFDF7FAFF084B1860D8E700BF22
:1029780000000000005BAE40800100203000002015
:10298800C801002000004940000039402C00002008
:10299800DFF834D0002103E00C4B5B58435004317E
:1029A8000B480C4B42189A42F6D30B4A02E000231C
:1029B80042F8043B094B9A42F9D3FFF751FF00F064
:1029C80011F8FEF759F8FEE700800020942A000865
:1029D80000000020100000201000002090020020BD
:1029E800FEE7000070B50D4D0D4C641BA4100026C9
:1029F800A64209D10B4D0C4C00F020F8641BA41022
:102A08000026A64205D170BD55F8043B984701360B
:102A1800EEE755F8043B98470136F2E78C2A0008A0
:102A28008C2A00088C2A0008902A000802440346D1
:102A3800934200D1704703F8011BF9E7F8B500BFCE
:102A4800F8BC08BC9E467047F8B500BFF8BC08BC87
:042A58009E467047DF
:102A5C0002030405060708090A0B0C0D0E0F1010D3
:102A6C000102030405060708090A0B0C0D0E0F10D2
:102A7C000000000000000000010203040607080922
:042A8C00AD01000890
:042A900089010008B0
:102A9400010000001000000000127A00650400002C
:04000005080029992D
:00000001FF
